:020000040800F2
:10000000503C0120894B00088D0300088F03000835
:1000100093030008970300089B03000800000000FA
:10002000000000000000000000000000B90200080D
:100030009F03000800000000150300086D3500084C
:10004000A34B0008A34B0008A34B0008A34B0008D8
:10005000A34B0008A34B0008A34B0008A34B0008C8
:10006000A1030008A34B0008A34B0008A34B000802
:1000700039060008A34B0008A34B0008A34B000857
:10008000A34B0008A34B0008A34B0008050600087B
:1000900001050008A34B0008A34B0008C303000898
:1000A000A34B0008A34B0008A34B0008A34B000878
:1000B0001B060008A34B0008610E0008A34B0008B4
:1000C000A34B0008A34B0008A34B0008A34B000858
:1000D000A34B000829040008A34B0008A34B000809
:1000E000A34B0008A34B0008A34B0008A34B000838
:1000F000A34B0008A34B0008A34B0008A34B000828
:10010000A34B0008A34B0008A34B0008A34B000817
:10011000A34B0008A34B0008A34B0008A34B000807
:10012000A34B0008A34B0008A34B0008A34B0008F7
:10013000A34B0008A34B0008A34B0008EF050008E1
:100140004F050008A34B0008A34B0008A34B000871
:10015000E3030008A34B0008A34B0008031D00089D
:10016000A34B0008A34B0008A34B0008A34B0008B7
:10017000A34B0008A34B0008A34B0008A34B0008A7
:10018000A34B0008A34B0008A34B0008A34B000897
:10019000A34B0008A34B0008A34B0008A34B000887
:1001A0000000000000000000A34B000800F002F86F
:1001B00000F072F80AA090E8000C82448344AAF18F
:1001C0000107DA4501D100F067F8AFF2090EBAE88D
:1001D0000F0013F0010F18BFFB1A43F0010318477B
:1001E00034EE000054EE00000A444FF0000C10F80A
:1001F000013B13F0070408BF10F8014B1D1108BFA5
:1002000010F8015B641E05D010F8016B641E01F844
:10021000016BF9D113F0080F1EBF10F8014BAD1C94
:100220000C1B09D16D1E58BF01F801CBFAD505E0B2
:1002300014F8016B01F8016B6D1EF9D59142D6D30C
:10024000704700000023002400250026103A28BF34
:1002500078C1FBD8520728BF30C148BF0B60704738
:1002600066290EF06E8564290CF0A48075290CF0C7
:10027000A18063290CF05F84002070471FB50EF049
:1002800056FD0CF099FC0400002000210DF034FF15
:10029000E0601FBD10B510BD0CF092FD1146FFF7D8
:1002A000EDFF00F068F80CF0B0FD03B4FFF7F2FFCB
:1002B00003BC03F0D1F900002C4B19680868B0E8C2
:1002C000F04F80F30988BFF36F8F4FF0000080F389
:1002D000118870470000000008480068006880F33B
:1002E00008884FF0000080F3148862B661B6BFF34F
:1002F0004F8FBFF36F8F00DF00BF00BF08ED00E03E
:10030000DFF80C00016841F470010160704700BF24
:1003100088ED00E0EFF30980BFF36F8F134B1A688D
:100320001EF0100F08BF20ED108A20E9F04F10607A
:1003300009B44FF0500080F31188BFF34F8FBFF323
:100340006F8F0AF097F84FF0000080F3118809BC16
:1003500019680868B0E8F04F1EF0100F08BFB0EC45
:10036000108A80F30988BFF36F8F70476401002003
:10037000EFF3058070474FF4407004F025FCB42083
:1003800003F0FCF802F0E2FE00BFFEE7704700BF9A
:10039000FEE700BFFEE700BFFEE700BFFEE77047D5
:1003A00010B5042007F0C4FE38B1AC48006808B9A5
:1003B000012000E00020A9490860042007F0C3FEE6
:1003C00010BD08B54FF4807007F0B2FE20B1694649
:1003D000A348006809F024F84FF4807007F0B3FEDA
:1003E00008BD08B59F49A04806F07DF9012816D13F
:1003F0009C499D4806F093F99A499B4806F0EAF912
:1004000069469A48006809F00BF8009838B14FF037
:10041000805097490860BFF34F8FBFF36F8F9549A6
:10042000914806F07CF908BD10B540F2255192487C
:1004300005F0DEFA18B1904805F018FA5FE040F2D6
:1004400024418D4805F0D4FA002858D08A4805F098
:100450000DFA854806F02DF940BB0021824806F0D0
:10046000E5F8814806F005F9C0F1240083490880C9
:1004700024217D4806F0FBF87B48006840F400200A
:10048000794908607E49784806F049F901217648A3
:1004900006F0CCF879480088122830D179497A489A
:1004A00000F02DFE00200BF06CFE28E000216E48CD
:1004B00006F0BCF86C4806F0DCF8C0F124006F4987
:1004C00008802421684806F0D2F86748006820F4C4
:1004D0000020654908606A49634806F020F9012157
:1004E000614806F0A3F865480088122807D16549DD
:1004F0006548243000F003FE00200BF042FE10BDE2
:1005000000B587B00221614805F0C6FE58B101AAC6
:1005100000215E4805F03DFD022306AA01A95C48C2
:10052000006808F001FF0221584805F050FF5949C2
:10053000564805F08EFE069838B14FF080504C4971
:100540000860BFF34F8FBFF36F8F07B000BD00B5DA
:100550002DED088B85B002214F4805F09DFEE8B3D4
:1005600002214D4805F033FF4A494B4805F071FE22
:100570006A460021484805F00CFD0098A0F20150A1
:1005800068BB4648DDF80B1001609DF80F10017143
:100590000146B1F902000EF00FF841EC1B0B9FED84
:1005A000400B53EC102B0EF05BF841EC190B3B4861
:1005B00090ED020A10EE101A08460EF047FB41ECCF
:1005C0001A0B53EC192B0EF057FA41EC180B0DF0E7
:1005D000B5FD324988600020C86001E003E000E01A
:1005E00000BF00BF00BF05B0BDEC088B00BD10B55B
:1005F0000121294805F050FE18B10121264805F0D7
:10060000E6FE10BD10B50121204805F045FE18B1E9
:1006100001211E4805F0DBFE10BD10B50121880741
:1006200006F061FE38B10121880706F06DFE012158
:10063000880706F055FE10BD10B51B491B4806F093
:1006400052F8012809D11849184806F068F81649E7
:10065000164806F0BFF802F02EFF10BDAC02424271
:100660006000002000880020886402405C000020B8
:1006700004ED00E000080020001001400000002010
:10068000000C002020020020D8010020006400405F
:10069000840000200800003200680040C8010020EB
:1006A000FCA9F1D24D62503F008800102860024042
:1006B0000CB50020019000908348006840F4803021
:1006C0008149086000BF8048006800F40030009055
:1006D0000198401C0190009818B90198B0F5A04FFE
:1006E000F1D17948006800F4003010B10120009089
:1006F00001E0002000900098012860D1724840304D
:10070000006840F080507049403108606F480068D0
:1007100040F440406D4908606B48083000686A4901
:10072000083108600846006840F400400860084648
:10073000006840F4A05008606548091F0860081F61
:10074000006840F08070091F086000BF5E480068C4
:1007500000F000700028F9D05C48006840F4803058
:100760005A49086000BF5948406800F480300028AA
:10077000F9D05648006840F400305449086000BF82
:100780005248406800F400300028F9D040F205706B
:10079000504908604C480830006820F003004A497E
:1007A000083108600846006840F00200086000BF99
:1007B00045480830006800F00C000828F8D10CBD4E
:1007C00010B54548006840F47000434908603E4851
:1007D000006840F001003C49086000203A490831B7
:1007E0000860394800683D490840374908603C487E
:1007F000091D0860081F006820F48020091F086098
:10080000002031490C310860FFF752FF4FF00060C3
:1008100031498039086010BD70B5002000220223E4
:1008200000240221284D08352D6805F00C0020B168
:10083000042806D0082834D107E02A4D2A4E356016
:1008400033E02A4D284E35602FE01F4D2D1D2D68B9
:10085000C5F380541C4D2D1D2D6805F03F0154B18A
:10086000224DB5FBF1F5184E361D3668C6F38816D5
:1008700005FB06F209E01B4DB5FBF1F5124E361DE6
:100880003668C6F3881605FB06F20F4D2D1D2D6840
:10089000C5F301456D1C6B00B2FBF3F5124E3560DC
:1008A00003E0104D104E356000BF00BF064D083507
:1008B0002D68C5F303150E4E705D0B4D2D68C540B8
:1008C000094E356070BD00000038024000700040E5
:1008D0000C5A4007003C024088ED00E0FFFFF6FEA6
:1008E000103000240024F40004000020001BB70096
:1008F00008000020D0ED000AF4EEC00AF1EE10FA74
:1009000001DD80ED000AD0ED000AB1EE401AF4EEF0
:10091000C10AF1EE10FA03D2F1EE400AC0ED000A6E
:10092000704783634263016380ED000AC0ED010AF2
:1009300080ED021A704780ED000AC0ED010A80EDDB
:10094000021ADFED6B1AC0ED061ADFED691AC0ED71
:10095000071ADFED671AC0ED081ADFED651AC0ED62
:10096000091A704700B50346881A00EE100AB8EE5F
:10097000C00A83ED050A186B03283ED193ED000AE7
:10098000D3ED050A20EE200A83ED060A93ED070A4F
:10099000D3ED010A93ED051A00EE810A83ED070AF3
:1009A00093ED050AD3ED040A30EE600AD3ED020A96
:1009B00020EE200A83ED080AD3ED0E0AF8EE600A55
:1009C000B0EE600A03F11C00FFF794FF93ED060AF6
:1009D000D3ED070A30EE200AD3ED080A30EE200AE4
:1009E00083ED090AD3ED0D0AF8EE600AB0EE600A55
:1009F00003F12400FFF77EFF42E0186B04283FD18B
:100A000093ED050AD3ED040A30EE600AD3ED000A37
:100A100020EE200A83ED060A93ED010AD3ED050AC4
:100A200020EE200A83ED070A93ED050AD3ED040AB0
:100A3000B0EE001A01EE600AD3ED030A30EE200A90
:100A4000D3ED020A20EE200A83ED080A93ED060A90
:100A5000D3ED070A30EE200AD3ED080A30EE200A63
:100A6000D3ED090A30EE200A83ED090AD3ED0D0A11
:100A7000F8EE600AB0EE600A03F12400FFF73AFFD7
:100A800093ED040A83ED030A93ED050A83ED040A4E
:100A900093ED090A00BD2DE9F0412DED048B0446CC
:100AA0000D4616461F46B0EE408AF0EE608AB0EE64
:100AB000419A1048E06310482064B0EE491AF0EE05
:100AC000680AB0EE480A3B46324629462046D4F82A
:100AD0003CC0E047B0EE491AF0EE680AB0EE480AB2
:100AE0002046216C8847BDEC048BBDE8F0810000F6
:100AF0000000000023090008370900081CB5012187
:100B0000702004F0F8FB4FF40060009001208DF895
:100B1000040000208DF8060003208DF80500012058
:100B20008DF807006946F94804F044F94FF4804015
:100B300000906946F64804F03DF91E200090694691
:100B4000F44804F037F94FF4F07000906946F1482A
:100B500004F030F94FF48041ED4804F0A7F94FF468
:100B60000061EA4804F0A2F91E21EA4804F09EF967
:100B70004FF4F071E74804F099F91CBD00B58BB053
:100B80000121402004F0FEFB0121802004F0B3FB92
:100B900009220621E04804F098F94020099002203B
:100BA0008DF8280003208DF8290000208DF82A00F8
:100BB00001208DF82B0009A9D74804F0FBF8592033
:100BC000ADF818000020ADF81A0040F6E660079076
:100BD0000020ADF820008DF8220006A9CF4805F0CE
:100BE000CAFE6020ADF804000120ADF80600042024
:100BF000ADF8080000200390ADF810000820ADF813
:100C000012004001ADF814000020ADF8160001A953
:100C1000C24805F045FF0121C04805F035FF01211C
:100C2000BE4806F022FB0BB000BD00B585B0012127
:100C3000022004F060FB0121880304F0B4FB0420CF
:100C4000039000208DF8100003208DF81100012082
:100C50008DF8130003A9B24804F0ACF8022101207A
:100C600004F0ADFC0420009000208DF804000C205E
:100C70008DF8050001208DF80600684607F0F2F9AE
:100C800008208DF8080006208DF8090000208DF856
:100C90000A0001208DF80B0002A803F09AFF05B0AE
:100CA00000BD1CB50121402004F025FB4FF400508D
:100CB000009001208DF8040000208DF8060003202C
:100CC0008DF8050001208DF807006946914804F071
:100CD00071F81CBD10B5FFF711FFFFF74FFFFFF7CD
:100CE000A4FFFFF7DEFF10BD10B540F6B8308B490A
:100CF0003431086040F6E66088492C31086096205F
:100D000009F07FFA40F6495084492C31086096205A
:100D100009F077FA40F6D63080492C3108609620E9
:100D200009F06FFA00207D493431086010BD10B51C
:100D300040F6B83079493431086040F6D63077490A
:100D40002C310860962009F05CFA40F6495073494E
:100D50002C310860962009F054FA40F6E6606F499D
:100D60002C310860962009F04CFA00206B49343190
:100D7000086010BD10B540F6B830684934310860DD
:100D800040F6E66065492C310860962009F039FA92
:100D900040F6495061492C310860962009F031FA3B
:100DA00040F6D6305D492C310860962009F029FACA
:100DB00000205A493431086010BD10B540F6B830F3
:100DC00056493431086040F6E66054492C310860D9
:100DD000962009F016FA40F6E66050492C3108607A
:100DE000962009F00EFA40F649504C492C31086023
:100DF000962009F006FA002048493431086010BDF9
:100E00001FB50121042004F0BDFA312002905920C1
:100E1000ADF804000020ADF80C00ADF8060001218B
:100E2000404805F013FE01A93E4805F0A4FD01214C
:100E30003C4805F029FE012211463A4806F03CFAEA
:100E40001E208DF8000004208DF8010000208DF890
:100E5000020001208DF80300684603F0BAFE1FBDB2
:100E600010B501212F4806F03EFA012804D12E4882
:100E70000068401C2C49086001212A4806F044FA09
:100E800010BD10B5002028490860FFF7B9FF10BD5C
:100E900010B54FF480411E4804F008F810BD10B59D
:100EA0004FF480411A4804F003F810BD10B54FF418
:100EB0008041174804F005F810BD10B54FF40061EB
:100EC000124803F0F3FF10BD10B54FF400610F4856
:100ED00003F0EEFF10BD10B54FF400610B4803F0B6
:100EE000F0FF10BD10B504464FF4807040FA04F1D5
:100EF000084803F0DDFF10BD10B504464FF48070C4
:100F000040FA04F1034803F0D1FF10BD0010024085
:100F10000014024000180240001C0240001800406B
:100F200000040240000800401800002010B50446EC
:100F30004FF4807040FA04F1014803F0C2FF10BD85
:100F40000018024000B597B00121022004F0D3F947
:100F50000121102004F027FA0121880504F0CBF9C3
:100F60000121102004F074FA0021102004F070FA1E
:100F70008020159002208DF8580000208DF85A002E
:100F800003208DF8590000208DF85B0015A9BD489D
:100F900003F010FF07221146BA4803F096FFBA4843
:100FA00004F046FBB94811900020ADF84800ADF8B8
:100FB0004A004FF48060ADF84C000420ADF84E00BC
:100FC0000020ADF8500011A9AF4804F098FB1021A3
:100FD000AD4804F004FD012240F22441AA4804F087
:100FE000CCFC01224021A84804F0BEFC0121A64807
:100FF00004F00DFC25208DF8400006208DF84100FE
:1010000000208DF8420001208DF8430010A803F065
:10101000E0FD00219E4805F009FB00BF9C480068E8
:1010200000F001000028F9D1994805F023FA4FF0AB
:10103000006001909448001D0290964803900020A3
:10104000049012200590002006904FF480600790D5
:101050000020089009904FF480700A904FF44030BF
:101060000B9000200C900D900E900F9001A98848D5
:1010700005F0A2FA002287492431854805F0FDFADF
:101080000121834805F005FB0021814805F0CEFAD7
:1010900001217F4805F0CAFA17B000BD10B5002144
:1010A000794804F0B4FB10BD10B504460021764821
:1010B00004F0ADFB0021764805F0B8FA21467448EB
:1010C00005F0D5FA1021704804F089FC7249704887
:1010D00005F025FB71496E4805F07CFB01216C4849
:1010E00005F0A4FA0121684804F091FB10BD014607
:1010F000002901DD08467047484200B2FBE700B115
:1011000001B970470278437842EA0322C2F30A0227
:101110000A804278D210837842EA4312C2F30A026C
:101120004A8082789211C37842EA8302037942EAC4
:101130008322C2F30A028A8002795210437942EA7A
:10114000C312C2F30A02CA804279C2F301128A7240
:10115000427912119308CB728279C37942EA032251
:1011600012B28A81027A437A42EA032213B201F16F
:101170000C02CB81827AC37A42EA032213B201F1D4
:101180000C020B82037B8B74437BCB74827BC37B0F
:1011900042EA03228A82027C437C42EA032212B2A0
:1011A0000A810A88A2F5806212B20A804A88A2F5F2
:1011B000806212B24A808A88A2F5806212B28A8066
:1011C000CA88A2F5806212B2CA800A89A2F580623A
:1011D00012B20A8100BF94E73148704710B5304918
:1011E000B1F90000FFF783FFB0F52F7F00DD24E0A9
:1011F0002B49B1F90200FFF77AFFB0F52F7F00DD30
:101200001BE02749B1F90400FFF771FFB0F52F7F0C
:1012100000DD12E02249B1F90600FFF768FFB0F5E2
:101220002F7F00DD09E01E48807A00B905E01C48E8
:10123000C07A00B901E0002010BD002018490880E4
:1012400048808880C8800881022088720221144862
:10125000C17200201249888100211148C181018298
:101260008174C17400200E4988820120E4E710B522
:101270002420FFF719FF10BD10B52420FFF714FF3D
:1012800010BD00000004024000100140A0860100D3
:1012900088640240D8010020000800200088002057
:1012A0002002002000B58BB00121084604F06AF846
:1012B0000121084604F01FF801220021364803F0FE
:1012C00004FE01221146344803F0FFFD01220221F1
:1012D000314803F0FAFD012203212F4803F0F5FD08
:1012E0000F20099002208DF8280003208DF8290096
:1012F00000208DF82A0001208DF82B0009A926482E
:1013000003F058FD40F28330ADF818000020ADF82E
:101310001A0040F2CF7007900020ADF8200006A917
:101320004FF0804005F027FB6020ADF8040001205D
:10133000ADF806000020ADF810006420039001A96C
:10134000000705F0ADFB01A94FF0804005F0E1FB7F
:1013500001A94FF0804005F029FC01A94FF0804021
:1013600005F08AFC0821C80605F027FD0821C806FB
:1013700005F02CFD0821C80605F035FD0821C8063A
:1013800005F03AFD0121880705F060FB012188077F
:1013900005F07AFB0BB000BD0000024000B58BB039
:1013A0000121480603F0EEFF0121082003F0A3FF0E
:1013B0000320099002208DF8280003208DF82900D1
:1013C00009A9A34803F0F6FC09220021A04803F074
:1013D0007CFD092201219E4803F077FD14208DF841
:1013E000200005208DF8210000208DF8220001202A
:1013F0008DF8230008A803F0ECFB13208DF82000E3
:1014000005208DF8210000208DF8220001208DF8A4
:10141000230008A803F0DDFB8E4804F033FB05A889
:1014200004F054FC00208DF81A008DF81B008DF894
:101430001C008DF81D008DF81E0001208DF81F0086
:1014400000208DF816008DF8170005208DF8180083
:1014500007208DF819000320ADF8140005A97D4878
:1014600004F029FB00208DF80E008DF80F000120FC
:101470008DF810000020ADF80400ADF80600ADF8BE
:101480000800ADF80A00ADF80C0001208DF811003D
:1014900001A804F09AFB012202216E4804F094FE98
:1014A0000BB000BD00B58BB00121480603F06AFF08
:1014B0000121880603F066FF0121022003F01BFFD3
:1014C0004FF44050099002208DF828008DF8290033
:1014D00009A9614803F06EFC09220C215E4803F063
:1014E000F4FC09220D215C4803F0EFFC40208DF84C
:1014F000200004208DF8210000208DF8220001201A
:101500008DF8230008A803F064FB3F208DF820002D
:1015100006208DF8210000208DF8220001208DF892
:10152000230008A803F055FB4C4804F0ABFA05A8CB
:1015300004F0CCFB00208DF81A008DF81B008DF80C
:101540001C008DF81D008DF81E0001208DF81F0075
:1015500000208DF816008DF8170005208DF8180072
:1015600007208DF819000320ADF8140005A93B48A9
:1015700004F0A1FA0E208DF80E0000208DF80F0067
:1015800001208DF810000020ADF80400ADF8060031
:10159000ADF80800ADF80A00ADF80C0001208DF898
:1015A000110001A804F011FB012202212B4804F0D4
:1015B0000BFE01221146294804F006FE0BB000BDC7
:1015C00010B5FFF7EBFEFFF76DFF10BD2DE9F04101
:1015D00086B006460D4614464FF0000801950020DF
:1015E0008DF80C008DF80D0008208DF80E00208875
:1015F000000A8DF80F0021788DF810106088010A1C
:101600008DF81110A1788DF81210A088010A8DF8BC
:10161000131021798DF81410E088010A8DF8151047
:10162000A1798DF8161001A9304604F0BDFB0746DC
:1016300000BF3946304604F04FFC30B9404608F14F
:1016400001084FF6FF718842F3DB06B0BDE8F08178
:10165000000C0240006400400004024000680040AA
:1016600001460868704701464948814201D200207E
:1016700070474848814201D20820F9E74648814234
:1016800001D21020F4E74548814201D21820EFE74B
:101690004348814201D22020EAE74248814201D2F8
:1016A0002820E5E74048814201D23020E0E73F486A
:1016B000814201D23820DBE73D48814201D24020FF
:1016C000D6E73C48814201D24820D1E73A488142DE
:1016D00001D25020CCE75820CAE72DE9F047044654
:1016E0000E4617464FF009080025A946B4F1006FD1
:1016F00002D304F0030008B1BDE8F08706F096F9C4
:10170000002006F076F9254604EB87092B48854230
:1017100015D211E02846FFF7A3FF401C58B1284618
:10172000FFF7A1FF8246022106F0D4F98046B8F106
:10173000090F01D002E02D1D4D45EBD300BFB8F1DC
:10174000090F0CD108E02046316806F0DFFA0928BD
:1017500000D003E0241D361D4C45F4D300BF01200A
:1017600006F047F906F06FF900BFC5E730B503464C
:101770000C461546002206E01846FFF771FF44F8B4
:1017800022001B1D521CAA42F6D330BD7047704781
:10179000004000080080000800C0000800000108A8
:1017A0000000020800000408000006080000080805
:1017B00000000A0800000C0800000E080000FF1FCF
:1017C0001CB50121082003F096FD4FF440700090F5
:1017D00002208DF8040000208DF8060003208DF80B
:1017E000050000208DF807006946494803F0E2FA39
:1017F00007220921464803F068FB072208214448D4
:1018000003F063FB1CBD1FB50121880403F0BAFD82
:10181000404803F00DFF4FF4E13000900020ADF898
:101820000400ADF80600ADF808000C20ADF80A0081
:101830000020ADF80C006946364803F060FF012136
:10184000344803F0E4FF01224021324804F08CF8D0
:101850001FBD08B50C208DF8000000208DF8010098
:1018600003208DF8020001208DF80300684603F084
:10187000B0F908BD00B58FB00121480503F03BFD6C
:101880000021254804F0D2FE00BF23482838806A92
:1018900000F001000028F8D11F4804F0EBFD4FF0E4
:1018A000006000901B48001D01901C480290002021
:1018B000039008200490002005904FF4806006906B
:1018C0000020079008904FF4807009904FF440304A
:1018D0000A9000200B900C900D900E9069460E48D7
:1018E00004F06AFE012210210B4804F02CFF0121B4
:1018F000094804F09BFE0FB000BD10B5FFF760FF74
:10190000FFF781FFFFF7A5FFFFF7B4FF10BD000051
:10191000000C024000480040286002407806002089
:1019200000B597B00121202003F03DFD01214020AA
:1019300003F0E1FC0121880503F0DDFC0822092108
:10194000FE4803F0C2FA08220E21FC4803F0BDFA5B
:101950004FF40070159002208DF8580003208DF888
:10196000590000208DF85A0001208DF85B0015A960
:10197000F24803F01FFAF24804F07CFD0021F04821
:1019800004F054FE00BFEE4804F09DFE0028FAD19A
:101990004FF020600190EB480290EB48039000204C
:1019A000049078200590002006904FF48060079006
:1019B0000020089009904FF480700A9000020B906C
:1019C00000200C9003200D9000200E900F9001A994
:1019D000DB4804F0F1FD0121D94804F027FED94885
:1019E000001F03F025FE4FF4E13011900020ADF808
:1019F0004800ADF84A00ADF84C00ADF850000420A6
:101A0000ADF84E0011A9CF48001F03F078FE012168
:101A1000CC48001F03F0FBFE002240F22661C948BB
:101A2000001F03F0AAFF002240F22551C548001F05
:101A300003F0A3FF012240F22441C248001F03F03B
:101A40009CFF47208DF8400003208DF841008DF861
:101A5000420001208DF8430010A803F0BAF80122DB
:101A60004021B848001F03F07FFF17B000BD10B53C
:101A70000246002329E0002021E002EB8004D4ED9F
:101A8000000A441C02EB840494ED001AF4EEC10A2F
:101A9000F1EE10FA11DD02EB800494ED000A441C13
:101AA00002EB8404D4ED000A02EB8004C4ED000ACA
:101AB000441C02EB840484ED000A441CE0B24C1E7A
:101AC000E41A8442D9DC5C1CE3B24C1E9C42D2DC9A
:101AD00010BD30B5034605E013F8010B80EA02049F
:101AE0009A48025D081EA1F10101F5D1104630BDF2
:101AF00070B505460C4600260DB1022C01D8002019
:101B000070BD611EFF222846FFF7E3FF0646601EF8
:101B1000285CB04201D10120F2E70020F0E770B567
:101B20002DED028B9FED8A0AB0EE408A894804F0C1
:101B3000A0FDC0F17800C5B20024A4E08248005D99
:101B4000A5282DD1611D8048FFF7D2FF002827D09E
:101B50007D49601C095C7C4AA01C105C41EA0020A5
:101B60007D49A1F801001146E01C085C7A49C87063
:101B70001146601D095CA01D105C41EA002000B206
:101B80007549C8800846C08801280AD10846B0F8BF
:101B900001206D4BE01D19186F4808300AF089FCD0
:101BA00070E06D48C088022813D16749E01D085CC9
:101BB0006949097C60F30301674801746249E01DCB
:101BC000085C00206449097C60F3071162480174D5
:101BD00058E06148C08803280AD15F48B0F8012066
:101BE000594BE01D19185C4811300AF062FC49E0BD
:101BF0005948C08804280AD15748B0F80120524BF0
:101C0000E01D1918544817300AF053FC3AE05248C6
:101C1000C08805280AD15048B0F801204A4BE01D81
:101C200019184D482B300AF044FC2BE04A48C08874
:101C300006280AD14848B0F80120434BE01D191886
:101C400045482D300AF035FC1CE04348C088072881
:101C50000AD14148B0F801203B4BE01D19183E481D
:101C60002E300AF026FC0DE03B48C088082809D138
:101C70003948B0F80120344BE01D1918364830308F
:101C80000AF017FC641CAC42FFF458AF3248D0F89D
:101C90001F00324948603048D0F81F003049314AAF
:101CA000127841F822002F480078401C2D49087016
:101CB00008460078052821D10020087001202A4913
:101CC000087005212648FFF7D2FE012409E02448C8
:101CD00000EB840090ED000A30EE080AB0EE408A76
:101CE000641C032CF3D9B0EE080AC8EE000A1B48A6
:101CF000C0ED060A9FED160AB0EE408ABDEC028BDD
:101D000070BD10B5002400BF40F224410D48001FF3
:101D100003F06EFE60B30B48001F0488001D0488AA
:101D200000200D4908640021054804F07FFCFFF7FE
:101D3000F6FE0E49024804F0F2FC1AE000180240D8
:101D400040640240041401403802002047ED0008BE
:101D50000000000088600240B0020020F402002071
:101D60002C030020220000201F000020400F001044
:101D700007E078210D4804F07AFC01210B4804F0BB
:101D800055FC00BF10BD70B505460C4600260DB1D0
:101D9000022C00D870BD611EFF222846FFF799FE75
:101DA0000646601E2E5400BFF4E700004064024067
:101DB0001FB5002400BF08F06CFD039000BF002297
:101DC0006946FC48006807F0B0FB0021FA4800684B
:101DD00006F062FE054605F0010000287DD0F748B8
:101DE000B0F90800F549B1F90610401AF4498842E3
:101DF00007DAF248C088A0F5005000B2EF494880E9
:101E000016E0EE48B0F90800EC49B1F90610401AA6
:101E100041F22C01884207DDE848C08800F50050F7
:101E200000B2E649488003E0E448C088E3494880BE
:101E3000BDF8060088B9E148B0F90800DF49B1F9FA
:101E40000210401A4FF4B4714843400B6E214843CE
:101E500000B2ADF80200002456E04CBBBDF806000D
:101E6000BDF8081010FB01F000B2ADF80200D34835
:101E7000B0F90800D149B1F90210401A00EE100A79
:101E8000B8EEC00ADFEDCF0A20EE200A9FEDCE1A91
:101E9000C0EE010ABDF90600404200EE100AB8EE9D
:101EA000C00AF4EEC00AF1EE10FA2DD801242BE09E
:101EB000012C29D1BDF806004042BDF80810484366
:101EC00000B2ADF80200BD48B0F90800BB49B1F955
:101ED0000210401A00EE100A00E047E0B8EEC00A17
:101EE000DFEDB80A20EE200A9FEDB71AC0EE010A16
:101EF000BDF9060000EE100AB8EEC00AF4EEC00A02
:101F0000F1EE10FA00DB0024BDF80000BDF802106D
:101F10000844BDF80410084400B2AC494880BDF83C
:101F200000004042BDF802100844BDF80410084407
:101F300001B2A648A0F84E10BDF80000BDF802108E
:101F40000844BDF80410401A01B2A048A0F89A1045
:101F5000BDF800004042BDF802100844BDF804106E
:101F6000401A01B29948A0F8E6100AE0002097490B
:101F7000488000219548A0F84E10A0F89A10A0F8CB
:101F8000E610082103A808F0D8F818E700BF4FF0C2
:101F9000FF318F48006807F099F88E4802F0BCF8CE
:101FA000F5E786B000BF4FF0FF3201A98A4800680C
:101FB00007F0BBFA00BF00BFF5E786B000BF4FF0E7
:101FC000FF3201A98548006807F0AFFA0198A0F236
:101FD0000120072876D2DFE800F00415293D51637F
:101FE00076009DF812109DF8110041EA002000B221
:101FF000764908800020886410217948006806F03E
:102000004BFD73E09DF812109DF8110041EA00208D
:1020100000B26E49A1F84C0000216C48C0F8941041
:1020200020216F48006806F037FD5FE09DF8121030
:102030009DF8110041EA002000B26449A1F898001F
:1020400000216248C0F8E01040216548006806F0B1
:1020500023FD4BE09DF812109DF8110041EA00208D
:1020600000B25A49A1F8E40000215848C0F82C11E8
:1020700080215B48006806F00FFD37E09DF81000F6
:102080009DF80F1040EA012000B24C49C8800020A2
:10209000C1F8A00004215248006806F0FDFC25E0CC
:1020A0009DF810009DF80F1040EA012000B24D4944
:1020B000C8800020C1F8A00008214948006806F047
:1020C000EBFC13E011E09DF812109DF8110041EABD
:1020D000002000B244490880002088644FF48071D9
:1020E0003F48006806F0D8FC00E000BF67E7014603
:1020F00048888880C8884880B1F90200B1F9042076
:10210000801A2F4A904203DA0888401C00B20880E7
:10211000B1F90200B1F90420801A41F22C02904278
:1021200003DD0888401E00B20880B1F90200B1F951
:102130000020C2EB4232104470472DED028B84B078
:102140004FF0000800BF00BF0027B946BA46002084
:1021500008EE100A08EE900A00BF08F09AFB019002
:1021600002211548006806F0F2FA082112480068BA
:1021700006F0EDFA00BF1D4840881049A1F8540050
:102180001A4800881749A1F85400002202A91848EB
:10219000006807F0CAF9174890ED000AB5EEC00ACA
:1021A000F1EE10FA28D020210348006806F0CFFA9B
:1021B00027E000009000002078000020BC040020F0
:1021C000D4EFFFFF0000B4430000004640030020AE
:1021D0006000002004060020880000208400002009
:1021E0007C0000206005002070040020C801002051
:1021F0008C000020640600202021FE48006806F0C4
:102200004BFCB8F1000F7DD1FB48B0F90800FA494A
:10221000B1F90610401AF949884207DAF648C08831
:10222000A0F5005000B2F449488016E0F248B0F939
:102230000800F149B1F90610401A41F22C01884218
:1022400007DDED48C08800F5005000B2EA4948803B
:1022500003E0E948C088E8494880E948B0F9080047
:10226000E749B1F90610401AE449884207DAE44820
:10227000C088A0F5005000B2E149488016E0E0486F
:10228000B0F90800DE49B1F90610401A41F22C01FC
:10229000884207DDDA48C08800F5005000B2D8490E
:1022A000488003E0D648C088D5494880D24909898A
:1022B0004FF4B47211FB02F0C11700EBD141491386
:1022C000CD4A5181114649884FF4B47211FB02F096
:1022D000C11700EBD1414913C74A9181C849098907
:1022E0004FF4B47211FB02F0C11700EBD141491356
:1022F000C34A5181114649884FF4B47211FB02F070
:10230000C11700E038E000EBD1414913BC4A91818C
:10231000B9484089B8498989401A05B210464089B0
:1023200011468989401A06B2291E01DB0A4600E0DF
:102330004A42052A1FDA301E01DB024600E0424213
:10234000052AF7DA4FF001089FEDAE0AAE4880ED9E
:10235000020A9FEDAC0AAD4880ED070A0020A849AB
:1023600008800846C0884880002088800121A14854
:10237000006806F0ECF994E0A34890ED020ABDEE87
:10238000C00A10EE100A00B29B4988819C48FFF7F2
:10239000AEFE4FF4B47100FB01F3D81703EBD0404D
:1023A000401300B29649888100219248006806F0E7
:1023B00073FB044604F01000102834D107F010001D
:1023C00028B98D48B0F90A908D48B0F90AA004F0F8
:1023D000200020281AD10120874948818C4890ED9F
:1023E000000ABDEEC00A10EE100A00B2888101207A
:1023F00083494881864890ED010AB1EE400ABDEE5E
:10240000C00A10EE100A00B2888149E007F02000EF
:10241000202845D178488089774948817848808943
:10242000774948813CE007F0100010280DD1724830
:102430008089A0EB090000B208EE100A704880897C
:10244000A0EB0A0000B208EE900A9DED030AF8EE38
:10245000C80A30EE200ABDEEC00A10EE100A00B223
:10246000654948819DED020AF8EEE80A70EE200AFF
:102470006348B0F9080000EE100AB8EEC00A30EE6A
:10248000800A5FEDB00A20EE200A5FEDB10A80EE0F
:10249000201ABDEEC10A10EE100A00B25849488158
:1024A0002746082101A807F048FE64E62DED048BBD
:1024B00088B0002403220021012006F01DFC5549AC
:1024C000086003220021012006F016FC5249086032
:1024D00000BF4FF0FF314F48006806F0F7FD0321C1
:1024E0004448006806F0D8FA4C48006807F058FCE9
:1024F00002204B490870FEF71AFC00BF434802F067
:102500009FF9424801F008FE641C404890ED030A20
:1025100010EE101A08460CF099FB41EC190BB0EEC6
:10252000490AF0EE690A0BF0A3FCB0EE408AF0EE27
:10253000608A9FED3C0B53EC102B51EC180B0CF008
:102540008DF9DBD3314890ED050A10EE101A0846DC
:102550000CF07CFB41EC190BB0EE490AF0EE690A75
:102560000BF086FCB0EE408AF0EE608A9FED2D0BFA
:1025700053EC102B51EC180B0CF070F9BED30A2C55
:10258000BCDBFEF71AFC012025490870811E224899
:10259000006806F09BFD0220214908701648C0889B
:1025A000154908811648C08815490881142103A8D7
:1025B00009F0FEFF1048B0F9060003901048B0F98A
:1025C000060004901148406A05901048C06A0690C1
:1025D0000E48806A0790052203A91448FFF77DF88A
:1025E000FEF7C8FB00200E4908700C4804210023A8
:1025F000CA011DE078000020BC040020D4EFFFFFDA
:102600006005002000000000C80100200406002032
:10261000640600206C0000207000002050000020A4
:10262000250000207B14AE47E17A843F00000608B5
:10263000CDE90010F8A1FD4807F064FB49E7014629
:1026400039B3FB4AB2F90020642A0EDAF94A12685B
:10265000521CF84B1A601A461268282A05DD01221E
:10266000F54B1A700022F34B1A60F34A1278012AD4
:102670000FD1F24A1268521CF04B1A60F0491A4608
:1026800012680A2A05DD0022EB4B1A70EB4B1A6028
:102690000146E74A5180704710B50021E9480068BB
:1026A00006F0FAF9044604F40070B0F5007F27D173
:1026B000E548C07A012804D002280BD003281DD198
:1026C00012E0E148B0F82700D72802DD0020FFF72C
:1026D000B6FF14E0DC48B0F82700B0F5A87F02DBB5
:1026E0000020FFF7ACFF0AE0D748B0F82700B0F5AC
:1026F000E47F02DB0020FFF7A2FF00E000BF00BF85
:1027000010BD08B500BF08F0C4F8009000BF00215C
:10271000CE48006806F0C0F904460CB3012C16D070
:10272000022C0BD0032C23D178204FF080418863FA
:10273000486341F2FC20FFF782FF1AE078204FF057
:102740008041886348630020FFF779FF11E064202F
:1027500001078863486341F2FC20FFF770FF08E03F
:1027600064200107886348630020FFF768FF00E0EA
:1027700000BF00BFFFF790FF1421684607F0DDFCA3
:10278000C5E71CB503220021012006F0B5FAB049C7
:10279000086003220021012006F0AEFAAD4908606E
:1027A00000BF4FF0FF31AA48006806F08FFCAA482E
:1027B000006807F0F5FA0120A8490870FEF7B7FA9B
:1027C000C820C106486388634FF0FF31A148006804
:1027D00006F07CFC0220A1490870FEF7CBFAFA2033
:1027E00004E04FF0804148638863401E6428F8DAB3
:1027F00000209A4908709848032100234FF4007282
:10280000CDE9001096A1994807F07CFAC9E70025A8
:1028100000BF4FF0FF319648006806F057FC0020DB
:102820009449C88202218748006806F035F991482A
:1028300090F9090001287CD0022802D0032879D120
:1028400093E08C48408A012804D141F288308A49BB
:1028500008801EE08748408A022804D14EF678405E
:102860008549088015E08348408A042804D14EF643
:102870008420814988800CE07E48408A082804D161
:1028800041F27C507C49888003E000207A498880AE
:1028900008807848408A402805D132207649C8808F
:1028A0003C20088107E07348408A802803D100203B
:1028B0007149C88008816F48408A102805D11021CD
:1028C0006E48006805F043FF08E06A48408A202807
:1028D00004D110216948006806F0DEF8002167483D
:1028E000006806F0D9F804466248007C012805D14A
:1028F00001215648006805F02AFF04E001215348F1
:10290000006806F0C9F802215048006805F01FFF72
:1029100004215A48006805F01AFF04F0100018BBA3
:10292000554890ED040A5348B0F90A0000EE900AA9
:1029300001E0BCE0D0E0F8EEE00A9FED511A00EEB5
:10294000C10A4D4880ED040A90ED030A4948B0F9E8
:102950000C0000EE900AF8EEE00A9FED4A1A00EE35
:10296000810A454880ED030AB7E042480088A0F597
:10297000806000EB8000400000B23F4988803D4805
:102980004088A0F5806000EB8000400000B2088025
:102990000020C88004F0100020BB084690ED040A17
:1029A0003448B0F90400A0F5806000EE900AF8EE1B
:1029B000E00A9FED351A00EEC10A084680ED040AD0
:1029C00090ED030A2B48B0F90600A0F5806000EEF8
:1029D000900AF8EEE00A9FED2D1A00EEC10A0846B3
:1029E00080ED030A2348007A012805D10321174806
:1029F000006806F051F854E01E48007A032847D1D9
:102A000002211248006805F0A2FE01210F4800686B
:102A100006F042F845E0000067696D62616C436F43
:102A20006E74726F6C7461736B0000003B21000860
:102A300070040020A8000020B0000020AC0000209E
:102A400024FAFFFF7C000020B00200207400002068
:102A500064000020680000203400002024000020D2
:102A600063616C697461736B0000000003270008E8
:102A70005C0000203806002050060020780000206E
:102A8000295C8F3D6666E63FA69B443BCDCCCC3DA2
:102A9000FE48007A022804D10321FD48006805F0B1
:102AA00056FE0421FB48006805F051FE15E00020A9
:102AB000F9498880088048800321F548006805F0BE
:102AC000EBFF0421F348006805F0E6FF0821F14818
:102AD000006805F03CFE00E000BF00BFEE4890ED4E
:102AE000030AB5EEC00AF1EE10FA00D10125012D5E
:102AF0001CD1E94890ED030ADFEDE80AB4EEE00AE4
:102B0000F1EE10FA04DD9FEDE50A80ED030A0DE019
:102B1000E14890ED030ADFEDE20AB4EEE00AF1EEDF
:102B200010FA03D29FEDDE0A80ED030A0223002291
:102B3000D949DC48006806F099F902230022D649F9
:102B40000C31D948006806F091F9D048B0F900007E
:102B5000B0F5B67F0FD1CD48B0F90600B0F5B67F1D
:102B600009D1D248007830B900231A461946D04816
:102B7000006806F07BF9C548B0F9000040F29461A6
:102B8000884210D1C148B0F90600B0F5B67F0AD12D
:102B9000C6480078012806D100231A461946C548C0
:102BA000006806F063F9B948B0F90000B0F5B67FE7
:102BB00010D1B648B0F9040040F29461884209D1BE
:102BC000BD48007830B900231A461946BB48006852
:102BD00006F04CF9AD48B0F9000040F2946188422B
:102BE0007FF417AEA948B0F90400B0F5B67FF7D16D
:102BF000B14800780128F3D100231A461946B0489D
:102C0000006806F033F904E608B50027B84600244A
:102C100000BF07F03EFE0090B0EE081AF7EE000A83
:102C2000B1EE0C0A4FF47A73DA000421A548FDF7DF
:102C300032FF002515E005EB450101EB0511A24A25
:102C400002EB8101081DB7EE001A5FED700AB0EECD
:102C5000000A4FF47A73DA000421FDF71CFF681CA8
:102C6000C5B2042DE7DBB9EE041ADFED980A9FED3B
:102C7000980A4FF47A739A0003219648FDF70BFFE8
:102C80009FED921ADFED910A9FED930A4FF4FA63DC
:102C90005A0003218F484830FDF7FDFEBAEE041AB2
:102CA000DFED8E0AB9EE0C0A4FF47A739A00032115
:102CB0008B48FDF7F0FE9FED851ADFED8A0AB2EE34
:102CC000010A4FF4FA635A00032185484830FDF7A2
:102CD000E2FE00BF00216F48006805F0DDFE0646F9
:102CE00006F0080008282DD1201D04B264217C487C
:102CF00010388164C0F89010764810388164C0F8AC
:102D00009010C0F88C4076481038C0F88C40B4F56C
:102D10007A6F17DB08215F48006805F0BDFE6D483B
:102D20001038C0F88C406E481038C0F88C404FF412
:102D3000FA718164C0F89010664810388164C0F858
:102D40009010002466481038B0F90C20B0F90A1031
:102D50001030FDF707FEBDEEC00A10EE100A0FFAA4
:102D600080F85F481038A0F85680B0F95420B0F9C8
:102D700056105830FDF7F6FDBDEEC00A10EE100AF1
:102D800000B25949488053481038B0F90C20B0F9C6
:102D90000A101030FDF7E6FDBDEEC00A10EE100A75
:102DA00007B24C481038A0F85670B0F95420B0F96A
:102DB00056105830FDF7D6FDBDEEC00A10EE100AD1
:102DC00000B2494908803F48001FB0F90020B0F91F
:102DD0000210001DFDF7C6FDBDEEC00A10EE100A80
:102DE00000B241498880002522E005EB450303EB52
:102DF0000513DFF8D4C03CF9232005EB450303EBB2
:102E000005130CEB8303B3F9021005EB450303EB49
:102E100005130CEB8303181DFDF7A4FDBDEEC00ADE
:102E200010EE100A00B2314921F81500681CC5B235
:102E3000042DDADB06F00600062806D12A4A40F205
:102E4000FF112B48FEF7C2FB18E0002008E000212C
:102E5000254A22F81010254A22F81010411CC8B249
:102E60000428F4DB204A40F2FF112148FEF7AEFBB4
:102E70001E4A4FF400711E48FEF7A8FB1B4A4FF490
:102E800000711C48FEF7A2FB042135E03806002043
:102E900074000020780000205006002000800944C3
:102EA000008009C4900000208C0000202400002035
:102EB0006400002068000020250000206C00002035
:102EC0007000002074040020400300200000000077
:102ED0006666E6C0CC040020000048420AD7A3BCC6
:102EE00070050020CDCC4C3D98000020A0000020B3
:102EF0000064004000680040684607F01EF9E9E6FB
:102F000088B0FDF7E7FEFEF7CDF9FEF71BF84FF4AA
:102F1000E13000F0B1FBFEF753FBFEF7EEFCFEF7ED
:102F2000FFFC142103A809F043FB052203A9F5487F
:102F3000FEF71CFC039800B2F3490881049800B224
:102F4000F2490881F249059848620698C8620798D4
:102F50008862642007F055F9002400BFED48B0F9FD
:102F60000200B0F5806F23D1642007F04AF9601C9D
:102F7000C4B2282C1EDB0024FDF7B6FEE64805216E
:102F800000234FF40072CDE90010AFF27451E34812
:102F900006F0B8FEE248062100238022CDE90010A9
:102FA000E0A1E54806F0AEFE002006F0F9FE01E0E3
:102FB000FDF7C8FF322007F024F9CFE72DED028B93
:102FC00082B005F014FB00220121084605F094FEB2
:102FD000DA49086000221421012005F08DFED8494D
:102FE000086000221421012005F086FED549086002
:102FF00000220821012005F07FFED349086000224D
:103000000A21012005F078FED04908600322002142
:10301000012005F071FECE49086003220021012045
:1030200005F06AFECB49086005F084FBCA490860D8
:1030300005F080FBC949086005F07CFBC8490860C1
:10304000C848042100238022CDE90010C6A1C94848
:1030500006F058FEC348042100238022CDE9001069
:10306000C1A1C54806F04EFEC448022100234A0211
:10307000CDE90010C2A1C54806F044FEC4480321B2
:1030800000234FF40072CDE90010C2A1C64806F03B
:1030900039FEC648042100238022CDE90010AFF29A
:1030A0004061C34806F02EFEC2480721002380225B
:1030B000CDE90010C0A1C34806F024FEC248052196
:1030C00000234FF49672CDE90010C0A1C34806F06A
:1030D00019FEC348052100234FF49672CDE9001074
:1030E000C0A1C44806F00EFEC3480521002380227B
:1030F000CDE90010C1A1C54806F004FEC448032173
:1031000000234FF40072CDE90010C2A1C54806F0BB
:10311000F9FD05F093FA00BFC348D0F81310084634
:103120000BF094FD41EC180BBF48807C53EC182B3E
:103130000090BEA009F0C0F8C1480178002000F05E
:1031400093F94FF4FA7007F05CF8E5E71CB5BD4859
:1031500002210023C822CDE90010BBA1BD4806F022
:10316000D1FD07F049FB1CBD00BFBB48C068401C37
:10317000B949C8606748C08A401C6649C88262482D
:10318000D0F8A000401C6049C1F8A0005F48D0F80A
:10319000A000401C5D49C1F8A000B048806C401CF4
:1031A000AE498864A048006C401C9F490864002018
:1031B00012E000EB400101EB0011A94A02EB810192
:1031C000896C491C00EB400202EB0012A44B03EB9C
:1031D00082029164411CC8B20428EADB9E48C068A0
:1031E0000A2808D301215E48006805F0B0FA0020E3
:1031F0009C49086002E001209A4908604548C08A5D
:103200000A2809DD02215648006805F0A0FA0020CE
:103210009449091D086003E001209249091D0860D6
:103220003948D0F8A0000A2809D904214C48006880
:1032300005F08DFA00208B490831086003E0012079
:103240008849083108603148D0F8A0000A2809D917
:1032500008214348006805F07AFA002081490C31C2
:10326000086003E001207F490C3108607B48806CD6
:103270000A280AD94FF480713948006805F067FAC6
:10328000002078491031086003E0012075491031B1
:1032900008606548006C0A280AD94FF4007130486C
:1032A000006805F054FA00206E491831086003E008
:1032B00001206C491831086000241CE004EB440034
:1032C00000EB0410664901EB8000806C0A280CD9E1
:1032D000201D012202FA00F12148006805F037FAAA
:1032E000002060491431086007E001205D49143175
:1032F0000860601CC4B2042CE0DB00BF0A2006F0AA
:1033000080FF32E700000608BC04002060050020B2
:103310000406002038060020500000203B21000851
:103320004800002050494443616C63756C617465CA
:103330005461736B00000000092C0008800000201D
:1033400084000020880000208C00002090000020D5
:103350005C00002060000020740000207800002045
:103360007C00002044000020627370696E697474F0
:1033700061736B00C1BE0008012F00082800002007
:10338000646275737461736B000000000F2800089D
:10339000340000206672694D6F746572436F6E74FD
:1033A000726F6C7461736B0003270008300000209B
:1033B0008327000854000020696D7563616C69748F
:1033C00061736B00AD2400083800002043616E314A
:1033D000526563656976657461736B00BB1F000895
:1033E0003C00002043616E32526563656976657406
:1033F00061736B00A31F000840000020494D555227
:103400006563656976657461736B00008D1F0008E4
:103410004C000020434D436F6E74726F6C74617387
:103420006B000000B11D0008B002002073706565DC
:10343000643A25662020206672653A25640D0A00EC
:10344000940000202C00002073746172745F74611A
:10345000736B0000BD2F0008C8010020700400201D
:10346000400300208402434270B504460D46FF200D
:1034700037490870084644708570FE20C8700020E7
:103480003449087012E000BF4021334802F09AFA34
:103490000128F9D12E482F4A1278815C2E4802F07B
:1034A000E1F92C480078401C2A4908702948007826
:1034B0000428E8DB70BD002000BF10E02749095C4C
:1034C000FF290BD1254AC11D515CFE2906D1411CA3
:1034D0001144234A0B68136089889180401C0A2894
:1034E000ECDB1F49B1F9001000EE101AB8EEC00A6B
:1034F000B1EE400ADFED1B0A80EE201A1A4981ED79
:10350000001A1749B1F9021000EE101AB8EEC00AFD
:10351000B1EE400ADFED130A80EE201A124981ED68
:10352000011A0F498988104A118111460989012918
:1035300004D1114691ED010A81ED010A0A49098978
:10354000022904D1084991ED010A81ED010A704771
:10355000B7000020BB000020004800407806002093
:10356000B10000200000C8426406002010B507F03A
:103570000CFC012801D005F07DF810BD70B50446A3
:10358000042001F073FB3248047025464FF47A7032
:10359000454301202F4908804FF0E020006940F0AA
:1035A00002004FF0E021086108464561006940F0E3
:1035B0000100086170BD70B5034600224FF0E0269F
:1035C0007569234E367803FB06F44FF0E026B169A7
:1035D00010E04FF0E026B06988420BD0884202D25A
:1035E0000E1A324402E02E1A0E4432440146A24220
:1035F00000D300E0EDE700BF70BD70B5044607F0F2
:10360000C4FB012811D013480088844206DB11480E
:10361000008894FBF0F5284606F0F3FD0D4800887D
:1036200094FBF0F100FB114084B24FF47A7104FB7B
:1036300001F0FFF7C0FF70BD30B50446002504E07F
:103640004FF47A70FFF7B7FF6D1CA542F8D330BD79
:10365000BC000020BE000020014600BF00207047D3
:10366000C2B2254B1A8000BF234A121F128802F0F3
:103670004002002AF8D0704710B586B004460121F8
:10368000082001F038FE0121480401F07BFE0722EA
:1036900005211A4801F019FC07220621174801F0FC
:1036A00014FC02208DF814008DF8150000208DF810
:1036B000160001208DF817006020049004A90F481F
:1036C00001F078FB00940020ADF80400ADF806008E
:1036D000ADF80800ADF80C000C20ADF80A00694602
:1036E0000548001F02F00BF801210348001F02F0FB
:1036F0008EF806B010BD000004440040000C0240EB
:10370000F0EE400AF6EE001A60EEA11AB0EE611A71
:10371000B0EE600A10EE100AFE49A1EB600000EE68
:10372000100A21EE002AF7EE081A42EE401A61EE66
:10373000801AB0EE610A704730B587B00546F64A88
:103740000DF11A0006A9031FCDE90102009105AA97
:10375000891F04A800F06BFF00241DE0032C0BDA86
:1037600004A830F9140000EE100AB8EEC00A05EB08
:10377000840080ED000A0EE004A830F9140000EE89
:10378000100AB8EEC00ADFEDE50A80EE201A05EB5C
:10379000840080ED001A641C062CDFDB07B030BD0E
:1037A00000B52DED108B9BB0F0EE40AAB0EE60BAE4
:1037B000F0EE41BAB0EE61DAB0EE42CAF0EE62CAA3
:1037C000B0EE43AAF0EE638AB0EE449AD44890ED8E
:1037D000000AD0ED000A20EE200A8DED0B0A90EDD4
:1037E000000AD048D0ED000A20EE200A8DED0A0A2A
:1037F000CB4890ED000ACC48D0ED000A20EE200A1C
:10380000F0EE40EAC64890ED000AC848D0ED000A44
:1038100020EE200A8DED090AC24890ED000AD0ED95
:10382000000A20EE200A8DED080A90ED000ABE483D
:10383000D0ED000A20EE200A8DED070AB94890ED80
:10384000000ABA48D0ED000A20EE200AB0EE40FA95
:10385000B54890ED000AD0ED000A20EE200A8DED6B
:10386000060A90ED000AB148D0ED000A20EE200AC9
:103870008DED050A90ED000AD0ED000A20EE200A39
:103880008DED040A01F0A1F8A94908600846006816
:10389000A8490968884210D2A64800684FF6FF710F
:1038A000081AA3490968084400EE100AB8EE400A55
:1038B000DFEDA10AC0EE209A0CE09D4800689D490A
:1038C0000968401A00EE100AB8EE400ADFED9A0AC5
:1038D000C0EE209A96480068964908606DEE0D0A81
:1038E0004CEE0C0A4CEEAC0AB0EE600AFFF708FF93
:1038F000B0EE408A2DEE080AB0EE40DA2CEE080A4F
:10390000B0EE40CA2CEE880AF0EE40CA6AEE0A0A0F
:1039100048EEA80A49EE090AB0EE600AFFF7F0FE89
:10392000B0EE408A2AEE080AB0EE40AA28EE880AD5
:10393000F0EE408A29EE080AB0EE409AB0EE000A96
:103940006AEE000A9DED060AB6EE001A31EE401A44
:103950009DED040A31EE400A20EE800AF0EE000AE6
:1039600068EEA01ADDED070A9DED091A70EEC10A96
:1039700001EEA00AF0EE000A69EE200A3FEE2E1AD0
:1039800000EE810A8DED1A0AB0EE000A2AEE001A46
:103990009DED070ADDED090A30EE200A21EE000A4E
:1039A000F0EE000A28EEA01ADDED080AF6EE001A85
:1039B00071EEE01ADDED040A71EEE00A01EE200A74
:1039C000F0EE000A69EE201ADDED050A9DED0A1AF7
:1039D00070EEC10A01EEA00A8DED190AB0EE000AE0
:1039E0002AEE000A7FEE6E0A20EE200AF0EE000AB0
:1039F00068EEA01ADDED050A9DED0A1A70EE810A47
:103A000001EEA00AF0EE000A29EE201ADDED080A08
:103A1000F6EE001A71EEE01ADDED060A71EEE00A2C
:103A2000F0EE40DA41EE20DA9DED1A0A60EE000A6F
:103A30009DED190A40EE000A10EE901A08460BF0B0
:103A400005F9CDE900019DED000B0AF01BFA8DEDA3
:103A5000020B9DED020B51EC100B0AF06FFB0FEE09
:103A6000900AB0EE6DEA3FEE6E0AF0EE000A20EE2C
:103A7000200A8DED180A9DED0A0ADDED050A30EEEB
:103A8000200AF0EE000A20EE200A8DED170A9DEDC7
:103A90000B0ADDED080A70EE600A9DED060A70EE75
:103AA000C00A9DED040A30EE800A8DED160AB0EED4
:103AB000000A6FEE800A9DED060AB6EE001A31EE9E
:103AC000401A9DED040A31EE400A20EE800AF0EE25
:103AD0004EDAF0EE000A6DEEA00A3FEE6E1A00EE2E
:103AE000810A8DED150AB0EE000A2FEE801A9DEDC9
:103AF000070ADDED090A30EE600A21EE000AF0EE59
:103B00004EDAF0EE000A6DEEA01ADDED0A0A9DED28
:103B1000051A13E0DF59375F0406002033330342F0
:103B2000D0000020D4000020D8000020DC000020BD
:103B3000EC000020E80000200024F44970EE810A27
:103B400001EEA00A8DED140AB0EE000A2FEE800AF5
:103B50007EEE8F0A20EE200AF0EE4EDAF0EE000A3A
:103B60002DEEA01ADDED080AF6EE001A71EEE01A4D
:103B7000DDED060A71EEE00A01EE200A8DED130A72
:103B80009DED160A6CEE000A9DED170A4CEEC00A78
:103B90009DED130A28EE801A9DED140A09EE401AD5
:103BA00030EE810A8DED120A9DED180A6CEE800A46
:103BB0009DED160A4DEE400A9DED150A29EE001AFC
:103BC0009DED130A0AEE401A30EE810A8DED110ABE
:103BD0009DED170A6DEE000A9DED180A4CEE400AA5
:103BE0009DED140A2AEE001A9DED150A08EEC01A82
:103BF00030EE810A8DED100A9DED120AB5EEC00A75
:103C0000F1EE10FA61D09DED110AB5EEC00AF1EEA9
:103C100010FA5AD09DED100AB5EEC00AF1EE10FA76
:103C200053D09DED120ADFEDFE0A60EE200AFD483A
:103C300090ED000A00EEA90A80ED000A9DED110A40
:103C4000DFEDF70A60EE200AF74890ED000A00EE7B
:103C5000A90A80ED000A9DED100ADFEDF10A60EE81
:103C6000200AF24890ED000A00EEA90A80ED000A51
:103C70009DED120AB0EE001AF0EE6A0A41EE000A5B
:103C8000E84890ED000A30EE800AF0EE40AA9DED83
:103C9000110AB0EE001AF0EE4B0A41EE000AE248BB
:103CA00090ED000A30EE800AB0EE40BA9DED100AA9
:103CB000B0EE001AF0EE6B0A41EE000ADB4890ED20
:103CC000000A30EE800AF0EE40BAD94890ED000AC2
:103CD000B1EE400A20EE2A0AD648D0ED000A00EEE6
:103CE000CB0AD54890ED001AF0EE400A41EE6B0A7F
:103CF000D24890ED000A00EEA90A8DED0F0A90ED72
:103D0000000A20EE2A0ACB48D0ED000A00EEAB0AEA
:103D1000C94890ED001AF0EE400A41EE4B0AC44843
:103D200090ED000A00EEA90A8DED0E0AC34890ED51
:103D3000000A20EE0B0ABE48D0ED000A00EEEB0AA6
:103D4000BD4890ED001AF0EE400A41EE2A0AB9484B
:103D500090ED000A00EEA90A8DED0D0AB74890ED2E
:103D6000000A20EE2B0AB248D0ED000A00EE8B0AC2
:103D7000B04890ED001AF0EE400A41EE6A0AAE48F3
:103D800090ED000A00EEA90A8DED0C0ADDED0F0A98
:103D900020EEA01ADDED0E0A00EEA01ADDED0D0AF0
:103DA00000EEA01ADDED0C0A00EEA01AB0EE410AFA
:103DB000FFF7A6FCB0EE408A9DED0F0A20EE080A40
:103DC0009E4880ED000A9DED0E0A20EE080A9848F4
:103DD00080ED000A9DED0D0A20EE080A954880ED61
:103DE000000A9DED0C0A20EE080A934880ED000AB7
:103DF0001BB0BDEC108B00BD30B52DED0C8B87B02A
:103E000005460C469FED8E0A8DED020A9FED8C0A49
:103E10008DED010A9FED8A0A8DED000A2046FFF71D
:103E20008BFC94ED050ADFED870A20EE200ADFED1A
:103E3000860A80EE201AB0EE418A94ED040ADFED86
:103E4000810A20EE200ADFED800A80EE201AF0EED3
:103E5000418A94ED030ADFED7B0A20EE200ADFEDB4
:103E60007A0A80EE201AB0EE419A94ED020AF0EE42
:103E7000402A94ED010AB0EE402A94ED000AF0EEDB
:103E8000401A9FED6F4ADFED6E3A9FED6D3AB0EE4E
:103E9000481AF0EE680AB0EE490AFFF781FC67485D
:103EA00090ED000A8DED030A614890ED000A8DED5A
:103EB000040A604890ED000A8DED050A5E4890ED19
:103EC000000A8DED060A9DED050AF8EE000A20EEC7
:103ED000200ADDED050A20EE200ADDED060AB0EE2F
:103EE000001A60EE810A9DED061A00EEC10AF7EE97
:103EF000000A30EE200A10EE101A08460AF0A6FE5C
:103F000041EC1C0B9DED040AF0EE000A20EE200AA5
:103F1000DDED050A20EE200ADDED030AB0EE001A01
:103F200060EE810A9DED061A00EE810A10EE101A6D
:103F300008460AF08BFE41EC1D0BB0EE4C1AF0EE79
:103F40006C1AB0EE4D0AF0EE6D0A09F099FEB0EE73
:103F500040BAF0EE60BA51EC1B0B0AF0E3F841EC0A
:103F60001A0B9FED3A0B53EC102B0AF079FB41EC46
:103F7000190B9FED380B53EC102B0AF0C5F941ECEF
:103F8000180B0AF0DBF800EE100A85ED000A9DED33
:103F9000040AF8EE000A20EE200ADDED060A20EE03
:103FA000200ADDED030AB0EE001A60EE810A9DEDF5
:103FB000051A00EE810A10EE101A08460AF046FEB5
:103FC00041EC1C0BB0EE4C0AF0EE6C0A09F03CFB25
:103FD000B0EE40BAF0EE60BA51EC1B0B0AF0A2F85A
:103FE00041EC1A0B9FED190B53EC102B0AF038FB28
:103FF00041EC190B9FED170B53EC102B0AF084F9D1
:1040000041EC180B0AF09AF800EE100A85ED010A4F
:104010009DED040AF8EE000A20EE200A1EE00000E2
:104020000AD7233CC4000020C8000020CC00002098
:10403000D4000020D8000020DC000020D0000020A8
:1040400000000000DB0F4940000034430000000086
:104050000080664000000060FB210940DDED040A9D
:1040600020EE200ADDED050AB0EE001A60EE810AAE
:104070009DED051A00EEC10AF7EE000A30EE200AA7
:1040800010EE101A08460AF0E1FD41EC1B0B9DED05
:10409000050AF0EE000A20EE200ADDED060A20EE09
:1040A000200ADDED030AB0EE001A60EE810A9DEDF4
:1040B000041A00EE810A10EE101A08460AF0C6FD36
:1040C00041EC1C0BB0EE4B1AF0EE6B1AB0EE4C0A42
:1040D000F0EE6C0A09F0D4FDB0EE40AAF0EE60AA52
:1040E0001FED260B53EC102B51EC1A0B0AF0B8FA0B
:1040F00041EC190B1FED290B53EC102B0AF004F9BE
:1041000041EC180B0AF01AF800EE100A85ED020ACD
:1041100007B0BDEC0C8B30BD10B58CB00446002050
:1041200009900A900B902421684608F041FA6946EC
:1041300009A8FFF761FE9DED030A84ED030A9DEDDA
:10414000040A84ED040A9DED050A84ED050A9DED3F
:104150000A0A84ED060A9DED0B0A84ED080A94ED27
:10416000070AD4ED050A9FED041A00EE810A84EDDA
:10417000070A0CB010BD00006F12833A70B50546F7
:104180000C460020F949086005F07F00F8490870E6
:104190000846007800F0CBFCF5480470007800F089
:1041A000C6FC0120F349C1F89802002070BD10B58B
:1041B00004460020ED49086044F08000EE49087094
:1041C0000846007800F0B3FC44F0800000F0AFFC3B
:1041D000EA4908700120E749C1F89802E7480078E9
:1041E00010BD10B5044644F08000E549087008464B
:1041F000007800F09CFCE34908700846007810BD88
:1042000070B504460D4600212A20FFF7B7FF0220B3
:10421000FFF7F3F921462920FFF7B0FF0220FFF74F
:10422000ECF929466420FFF7A9FF0220FFF7E5F922
:1042300081212A20FFF7A2FF0A20FFF7DEF970BDD7
:1042400070B5044621463220FFF798FF0A20FFF799
:10425000D4F980213420FFF791FF0A20FFF7CDF930
:104260003520FFF7A4FF054600213420FFF786FF25
:104270000A20FFF7C2F9284670BD70B504460E4605
:10428000154621462820FFF779FF0220FFF7B5F9F0
:104290000A212920FFF772FF0220FFF7AEF9012162
:1042A0006420FFF76BFF0220FFF7A7F944F08001BD
:1042B0002520FFF763FF0220FFF79FF931462620F4
:1042C000FFF75CFF0220FFF798F903213420FFF786
:1042D00055FF0220FFF791F903216720FFF74EFFFA
:1042E0000220FFF78AF981212A20FFF747FF0620E5
:1042F000FFF783F945F080012720FFF73FFF0720F4
:10430000FFF77BF970BD10B530216A20FFF736FF4B
:104310000A20FFF772F90D212420FFF72FFF0A2052
:10432000FFF76BF90E212820FFF728FF0A20FFF77F
:1043300064F98E213120FFF721FF0A20FFF75DF994
:1043400001210B20FFF75CFF0020FFF779FF102809
:1043500001D0012010BD0A20FFF74FF900210A20EB
:10436000FFF74EFF0A20FFF76BFF08B10220F1E7CD
:104370000A20FFF742F900210B20FFF741FF0B2035
:10438000FFF75EFF08B10320E4E70A20FFF735F9E5
:1043900024214120FFF734FF4120FFF751FF24285B
:1043A00001D00420D6E70A20FFF727F9C0214220D8
:1043B000FFF726FF4220FFF743FFC02801D005206A
:1043C000C8E70A20FFF719F900212A20FFF7D6FED7
:1043D0000A20FFF712F900213420FFF7CFFE0A2050
:1043E000FFF70BF9062203210E20FFF746FF64209A
:1043F000FFF703F90020ADE710B50446E006010E13
:104400001C20FFF7BBFE10BD10B50446E006010EF0
:104410001B20FFF7B3FE10BD2DE9F04304460D4607
:10442000DDE9076700200021012041E0DFF858C1E5
:104430003CF81080A0F1010CDFF84C9129F81C80A9
:1044400009F1160C3CF81090A0F1010CDFF838814E
:1044500008F1160828F81C9008F1160C3CF810908A
:10446000A0F1010C08F1160828F81C9008F1160CB0
:104470003CF81090A0F1010C08F1160828F81C90E7
:1044800008F1160C3CF81090A0F1010C08F1160888
:1044900028F81C9008F1160C3CF81090A0F1010CC3
:1044A00008F1160828F81C9000F1010C0CF0FF0030
:1044B0000A28BBDBDFF8D0C0ACF81240ACF82850BB
:1044C000ACF83E20ACF85430ACF86A60ACF88070C0
:1044D000002008E0DFF8B0C03CF910C0614400F1F2
:1044E000010C0CF0FF000A28F4DB4FF00A0C91FBE2
:1044F000FCFC0FFA8CFCDFF89080A8F814C00021B7
:1045000000200AE0DFF880C00CF1160C3CF910C066
:10451000614400F1010C0CF0FF000A28F2DB4FF0BF
:104520000A0C91FBFCFC0FFA8CF8DFF85CC0ACF8CD
:104530002A80002100200AE0DFF84CC00CF12C0C8E
:104540003CF910C0614400F1010C0CF0FF000A2896
:10455000F2DB4FF00A0C91FBFCFC0FFA8CF8DFF851
:1045600028C0ACF840800021002018E09882424228
:104570002A010020008042422C0100202B01002053
:104580002E0100202D010020B6060020DFF844C4D3
:104590003CF910C0614400F1010C0CF0FF000A2846
:1045A000F4DB4FF00A0C91FBFCFC0FFA8CF8DFF8FF
:1045B00024C4ACF1420CACF85680002100200AE083
:1045C000DFF810C40CF1160C3CF910C0614400F186
:1045D000010C0CF0FF000A28F2DB4FF00A0C91FBF3
:1045E000FCFC0FFA8CF8DFF8ECC3ACF1420CACF831
:1045F0006C80002100200AE0DFF8D8C30CF12C0CFD
:104600003CF910C0614400F1010C0CF0FF000A28D5
:10461000F2DB4FF00A0C91FBFCFC0FFA8CF8DFF890
:10462000B4C3ACF1420CACF88280BDE8F0832DE954
:10463000F04786B005460E4617469846DDE90E9AC5
:10464000109C0020E4490860BB2000F070FA3B2079
:10465000FFF7C7FD8DF808003C20FFF7C2FD8DF87D
:1046600009009DF809009DF8081040EA012000B2F9
:10467000DA4908803D20FFF7B4FD8DF80A003E209E
:10468000FFF7AFFD8DF80B009DF80B009DF80A10A9
:1046900040EA012000B2D24908803F20FFF7A1FD87
:1046A0008DF80C004020FFF79CFD8DF80D009DF863
:1046B0000D009DF80C1040EA012000B2C9490880A5
:1046C0004120FFF78EFD8DF80E004220FFF789FD97
:1046D0008DF80F009DF80F009DF80E1040EA0120A4
:1046E00000B2C149C8804320FFF77BFD8DF8100060
:1046F0004420FFF776FD8DF811009DF81100BB49AD
:104700000989401A9DF8101040EA012000B2B8490A
:1047100008804520FFF765FD8DF812004620FFF761
:1047200060FD8DF813009DF81300B0494989401AC7
:104730009DF8121040EA012000B2AE4908804720DF
:10474000FFF74FFD8DF814004820FFF74AFD8DF864
:1047500015009DF81500A5498989401A9DF8141087
:1047600040EA012000B2A44908800120A349C1F811
:104770009802A148B0F900009E49B1F90010CDE9B6
:1047800000109B48B0F900309648B0F900209448DA
:10479000B0F900109148B0F90000FFF73DFE8D48D8
:1047A0004238808A28808B484238408D3080894842
:1047B0004238B0F84000388086484238B0F8560099
:1047C000A18C401A00B2A8F8000082484238B0F824
:1047D0006C00218D401A00B2A9F800007D484238D3
:1047E000B0F88200A18D401A00B2AAF8000006B00D
:1047F000BDE8F08770B5DDE90445764E423EB68AE5
:104800000680744E423E768D0E80724E423EB6F861
:10481000406016806F4E423EB6F85660103E36B28B
:104820001E806C4E423EB6F86C60761D36B2268015
:10483000684E423EB6F88260223636B22E8070BD97
:104840002DE9F04F87B00446002500260027A84632
:10485000A946AA46AB4600BF11E06420FEF7ABFEB6
:10486000674A0DF11A0006A9031FCDE90102009164
:1048700005AA891F04A8FFF7DAFE681CC5B2322D0D
:10488000EBDB002523E0C820FEF795FE5C4A0DF126
:104890001A0006A9031FCDE90102009105AA891F8C
:1048A00004A8FFF7C4FEBDF910008144BDF9120051
:1048B0008244BDF914008344BDF916000644BDF9D5
:1048C00018000744BDF91A008044681CC5B2642D65
:1048D000D9DB642096FBF0F06062642097FBF0F077
:1048E000A062642098FBF0F0E06207B0BDE8F08FB2
:1048F00010B5024600210AE0424C34F911409442BE
:1049000003D1404C34F9113003E04C1CE1B20829CA
:10491000F2DB00BFD41A20B210BD10B586B000245F
:104920001422394901A807F009FE6420FEF765FE4C
:1049300000F0F4F86420FEF760FE7520FFF737FC06
:10494000702805D031A007F0B7FCFF2006B010BDDD
:1049500000240DE001AA02EB4402517801AA12F8EA
:104960001400FFF70BFC0120FEF747FE601CC4B2E9
:104970000A2CEFDB0020E9E70EB50121082000F04A
:1049800001FD4FF0FF3001905920ADF800000020EC
:10499000ADF80800ADF8020001211F4802F056F8FA
:1049A00069461D4801F0E7FF01211B4802F06CF841
:1049B0000EBD10B502E0C820FEF71FFEFFF7ADFFE9
:1049C000FF28F8D0FFF7D8FF10BD13482430006847
:1049D00070470000F806002098824242F60000204E
:1049E000F8000020FA000020820600209C0600202B
:1049F000FC000020FE000020000100200080424258
:104A0000040600200201002048EE00086572726F63
:104A1000722031410D0A0000000C00401CB501213C
:104A2000202000F068FC4FF46070009002208DF8A8
:104A3000040000208DF8060003208DF805000020FA
:104A40008DF8070069464E4800F0B4F94020009008
:104A500001208DF8040000208DF8060003208DF859
:104A6000050000208DF807006946454800F0A2F9CE
:104A700005220721424800F028FA05220921404872
:104A800000F023FA052208213D4800F01EFA1CBD63
:104A900000B585B00121080500F085FC012108055D
:104AA00000F0D6FC00214FF4801000F0D1FC002073
:104AB000ADF800004FF48270ADF802000020ADF8B0
:104AC0000400ADF80600ADF808004FF40070ADF832
:104AD0000A003020ADF80C000020ADF80E000A20CE
:104AE000ADF810006946274802F036FD012125483F
:104AF00002F02CFE05B000BD10B504462148008828
:104B00004FF6C77108401F490880084600882043B7
:104B1000088001211B4802F019FE10BD10B5FFF7F7
:104B20007DFFFFF7B5FF3020FFF7E6FF10BD70B542
:104B300005460126002422E0012E0FD10221114852
:104B400002F082FE50B1002401E0601CC4B2C82C07
:104B5000FBDB29460B4802F075FE00267EB90121D9
:104B6000084802F071FE50B1002401E0601CC4B29C
:104B7000C82CFBDB034802F062FEC0B270BDDBE76D
:104B8000001402400050014009488047094800478E
:104B9000FEE7FEE7FEE7FEE7FEE7FEE7FEE7FEE7ED
:104BA000FEE7FEE704480549054A064B704700004A
:104BB000C1070008AD01000850360120503C01201B
:104BC000503801205038012032490143324A1160E7
:104BD000704770B5002100230F22C4781CB32E4CFF
:104BE000246804F4E064C4F5E064C4F30721C1F16F
:104BF0000404E3B20A4144789C40E1B28478144052
:104C000021430C07210E254C05786155047804F0EA
:104C10001F050124AC4005786D11AD0005F1E025BC
:104C2000C5F8004109E0047804F01F050124AC40F8
:104C30001B4D0678761145F8264070BD194A0A408A
:104C40000243154B1B1F1A60704739B1124A121DDF
:104C500012680243104B1B1D1A6006E00E4A121D1B
:104C6000126882430C4B1B1D1A607047042808D140
:104C70004FF0E021096941F004014FF0E022116199
:104C800007E04FF0E021096921F004014FF0E02234
:104C9000116170470000FA050CED00E000E400E04F
:104CA00080E100E080FFFF1F10B504469848844271
:104CB00008D10121084600F087FB0021012000F007
:104CC00083FB76E09348844208D10121022000F062
:104CD0007BFB0021022000F077FB6AE08E488442D3
:104CE00008D10121042000F06FFB0021042000F016
:104CF0006BFB5EE08948844208D10121082000F066
:104D000063FB0021082000F05FFB52E084488442EE
:104D100008D10121102000F057FB0021102000F0E5
:104D200053FB46E07F48844208D10121202000F057
:104D30004BFB0021202000F047FB3AE07A488442F8
:104D400008D10121402000F03FFB0021402000F06D
:104D50003BFB2EE07548844208D10121802000F001
:104D600033FB0021802000F02FFB22E070488442BA
:104D700008D10121801500F027FB0021A01500F0CB
:104D800023FB16E06B48844208D10121401500F056
:104D90001BFB0021601500F017FB0AE06648844207
:104DA00007D10121001500F00FFB0021201500F0B4
:104DB0000BFB10BDF0B50A4600210023002400BF04
:104DC0003DE0012505FA01F3156805EA03049C425C
:104DD00034D105684F000326BE40B5430560157900
:104DE0004E00B5400668354305601579012D02D0A7
:104DF0001579022D16D185684F000326BE40B543B4
:104E0000856055794E00B5408668354385604568B4
:104E100001268E40B5434560456896798E40B6B20E
:104E200035434560C5684F000326BE40B543C560A5
:104E3000D5794E00B540C6683543C560491C102978
:104E4000BFD3F0BD4FF6FF710160002101714171C8
:104E50008171C171704708B54FF480320092009A99
:104E60000A430092009AC261C161009AC261C2699C
:104E70000092C269009208BD0246002013690B40EF
:104E80000BB1012000E0002070470146086980B2A4
:104E900070470246002053690B400BB1012000E02F
:104EA000002070470146486980B27047018370470F
:104EB000418370470AB1018300E04183704741613B
:104EC000704742694A4042617047F0B500230024B0
:104ED0004D07ED0E02FA05F3CE1000F1200555F84E
:104EE00026504E07F70E0F26BE40B543CF1000F1F7
:104EF000200646F82750CE1000F1200555F8265020
:104F000045EA0304CE1000F1200545F82640F0BD27
:104F1000000002400004024000080240000C024071
:104F2000001002400014024000180240001C024021
:104F3000002002400024024000280240F648006899
:104F400040F00100F44908600020F349083108608E
:104F5000F1480068F1490840EF490860F048091D30
:104F60000860F048EC4984310860ED481038091DAC
:104F70000860E948006820F48020E74908600020C4
:104F8000E5490C310860E4498C3108607047012123
:104F9000E14A921C117011460870704710B5014625
:104FA0000022002300204A11012A02D1DA4C236892
:104FB00008E0022A03D1D84C7034236802E0D64CB2
:104FC0007434236801F01F02012494401C400CB18A
:104FD000012000E0002010BD38B500200090002422
:104FE000002500BF3120FFF7D9FF05460098401C7F
:104FF00000900098B0F5A04F01D0002DF2D03120E4
:10500000FFF7CCFF08B1012400E00024204638BDA2
:1050100001460020C04A106820F0F80040EAC100B4
:1050200010607047C049086070470021BA4A70326A
:1050300011701170012802D004280AD104E0012166
:10504000B54A7032117005E00521B34A7032117013
:1050500000E000BF00BF7047B4490860704770B5FA
:10506000049C41EA82150126C6EB530645EA064533
:10507000054345EA0465A84E361D356070BDAA4952
:105080000866704710B5830143EA016343EA02737F
:10509000A14C8434236010BDA3498866704710B5C5
:1050A000830143EA016343EA02739B4C8834236023
:1050B00010BD9D49086770479B49C8647047024608
:1050C0000020954B0833186820F0EC6042EA010399
:1050D0001843914B083318607047024600208E4BEE
:1050E0000833186820F0784042EA010318438A4BDD
:1050F00008331860704701460020874A083210685C
:1051000020F00300084310607047834808300068AF
:1051100000F00C007047014600207F4A08321068FA
:1051200020F0F000084310607047014600207A4AE2
:105130000832106820F4E0500843106070470146C0
:105140000020754A0832106820F4604040EAC1002F
:1051500010607047F0B500210022002402250026CF
:1051600002236D4F08373F6807F00C0121B1042975
:1051700005D0082937D105E06D4F076036E06D4F47
:10518000076033E0644F3F1D3F68C7F38056624FAE
:105190003F1D3F6807F03F036EB1664FB7FBF3F763
:1051A000DFF874C10CF1040CDCF800C0CCF3881CEF
:1051B00007FB0CF40CE05E4FB7FBF3F7DFF858C1C8
:1051C0000CF1040CDCF800C0CCF3881C07FB0CF4D9
:1051D000514F3F1D3F68C7F301477F1C7D00B4FB63
:1051E000F5F7076002E0524F076000BF00BF4A4F6B
:1051F00008373F6807F0F00109094F4F7A5C0768EC
:10520000D7404760444F08373F6807F4E051890AA8
:10521000494F7A5C4768D74087603F4F08373F68FF
:1052200007F46041490B444F7A5C4768D740C76038
:10523000F0BD002100F44072B2F5407F0AD1364A39
:105240000832116821F4F8113C4A02401143324AF5
:1052500008321160304A70321268C0F30B031A43EF
:105260002D4B70331A6070473049443908607047DD
:105270002E4940390860704731490860704701463F
:105280000020254A8C32106820F01F004A1E10436F
:10529000214A8C3210607047014600201E4A8C3231
:1052A000106820F4F8504A1E40EA02201A4A8C3254
:1052B0001060704701460020174A8C32106820F4B5
:1052C000401008431060704701460020124A8C329B
:1052D000106820F440000843106070470146002029
:1052E0000D4A8C32106820F440300843106070473B
:1052F00014490860704739B1074A303212680243D6
:10530000054B30331A6006E0034A3032126882439C
:10531000014B30331A60704700380240FFFFF6EA55
:10532000103000240030002000004742800E474229
:105330000024F400001BB7002F010020FFFCFF0F2A
:105340005C014742E011474229B1934A1268024387
:10535000914B1A6004E0904A126882438E4B1A60A7
:10536000704739B18C4A121D126802438A4B1B1DCB
:105370001A6006E0884A121D12688243864B1B1D84
:105380001A60704739B1844A0C3212680243824B6A
:105390000C331A6006E0804A0C32126882437E4B5E
:1053A0000C331A60704739B17B4A103212680243DD
:1053B000794B10331A6006E0774A10321268824344
:1053C000754B10331A60704739B1734A243A12682A
:1053D0000243714B243B1A6006E06F4A243A12687C
:1053E00082436D4B243B1A60704739B16A4A203AB8
:1053F00012680243684B203B1A6006E0664A203A76
:1054000012688243644B203B1A60704739B1624A8C
:105410001C3A12680243604B1C3B1A6006E05E4A6D
:105420001C3A126882435C4B1C3B1A60704739B1CE
:10543000594A143A12680243574B143B1A6006E06B
:10544000554A143A12688243534B143B1A60704712
:1054500039B1514A103A126802434F4B103B1A605F
:1054600006E04D4A103A126882434B4B103B1A60DB
:10547000704739B1484A1C3212680243464B1C330C
:105480001A6006E0444A1C3212688243424B1C33C5
:105490001A60704739B1404A2032126802433E4BCD
:1054A00020331A6006E03C4A2032126882433A4BAD
:1054B00020331A60704739B1374A243212680243E8
:1054C000354B24331A6006E0334A24321268824393
:1054D000314B24331A60704739B12F4A2C3212688D
:1054E00002432D4B2C331A6006E02B4A2C321268F3
:1054F0008243294B2C331A60704739B1264A303227
:1055000012680243244B30331A6006E0224A3032DC
:1055100012688243204B30331A607047012808D14B
:105520001D493C31096841F008011B4A3C321160B9
:1055300007E019493C31096821F00801164A3C325C
:105540001160704739B1144A273A12780243124B5E
:10555000273B1A7006E0104A273A127882430E4B16
:10556000273B1A7070470C484030006840F080704C
:10557000094940310860704701460020064A283A30
:1055800012680A400AB1012000E000207047024979
:1055900026390870704700003438024010B50121E8
:1055A0008803FFF755FF00214FF48040FFF750FFBD
:1055B00010BD1C49086070471B490862704730B530
:1055C00000228B071C0F0F2303FA04F2154B08333C
:1055D0008C1053F824309343124C08348D1044F847
:1055E000253023468C1053F824308C07240F00FA02
:1055F00004F423430B4C08348D1044F8253030BD9F
:105600000949DC310860704708490860704700208C
:1056100004492031096801F4807109B1012000E0DA
:105620000020704700380140000027420004274254
:1056300010B50446FA48844208D101211020FFF732
:1056400007FF00211020FFF703FF57E0F5488442D1
:1056500009D101214804FFF7EAFE00214FF4003090
:10566000FFF7E5FE4AE0F048844209D101218804B1
:10567000FFF7DDFE00214FF48020FFF7D8FE3DE06C
:10568000EA48844209D10121C804FFF7D0FE002175
:105690004FF40020FFF7CBFE30E0E548844209D10B
:1056A00001210805FFF7C3FE00214FF48010FFF72A
:1056B000BEFE23E0DF48844208D101212020FFF70D
:1056C000C7FE00212020FFF7C3FE17E0DA4884421E
:1056D00009D101218807FFF7AAFE00214FF0804081
:1056E000FFF7A5FE0AE0D548844207D10121400515
:1056F000FFF79DFE00216005FFF799FE10BD2DE923
:10570000FF4705460E460024A14600BFA046B089CB
:1057100000B100BF2C8A24F44054F08804432C824A
:10572000AC8941F20C608443B088318908437189A7
:1057300008430443AC81AC8A24F44074B089044328
:10574000AC826846FFF706FDB548854202D0B948ED
:10575000854202D1DDF80C9001E0DDF80890A889BF
:1057600000F4004040B109EBC90000EB09103168BA
:105770004900B0FBF1F707E009EBC90000EB0910A5
:1057800031688900B0FBF1F76420B7FBF0F0040149
:105790002009642101FB1078A88900F4004040B181
:1057A000322000EBC800B0FBF1F000F0070004432A
:1057B00008E0322000EB08106421B0FBF1F000F0AB
:1057C0000F0004432C81BDE8FF874FF416510160A0
:1057D00000218180C18001810C21418100218181D2
:1057E000704710B502460020108A20F470600B88C4
:1057F0004C8823438C882343CC882343184310824E
:1058000010BD0021018041808180C180704721B19D
:10581000828942F40052828104E082894DF6FF734E
:105820001A4082817047028B02F47F420283028B0E
:105830000A430283704721B1828942F40042828187
:1058400003E08289C2F30E028281704721B1828A0D
:1058500042F40062828204E0828A4FF2FF731A40AF
:1058600082827047C1F308028280704701468888AF
:10587000C0F308007047028A4FF6F0731A400282A4
:10588000028A0A430282704721B1828942F00202F1
:10589000828104E082894FF6FD731A40828170474D
:1058A00082894FF2FF731A40828182890A43828182
:1058B0007047028A4FF6DF731A400282028A0A4357
:1058C0000282704721B1028A42F48042028204E0DF
:1058D000028A4BF6FF731A4002827047818941F0B9
:1058E00001018181704721B1828A42F008028282DF
:1058F00004E0828A4FF6F7731A4082827047028B67
:10590000D2B20283028B42EA01220283704721B1A4
:10591000828A42F02002828204E0828A4FF6DF739C
:105920001A408282704721B1828A42F0100282823C
:1059300004E0828A4FF6EF731A4082827047828AAF
:105940004FF6FB731A408282828A0A438282704732
:1059500021B1828A42F00202828204E0828A4FF6FA
:10596000FD731A40828270471AB1838A0B43838287
:1059700002E0838A8B4383827047F0B5034600249C
:1059800000260025002040F66A17B94200D100BF6A
:105990001846C1F3421401F01F06012707FA06F565
:1059A000012C01D10C3004E0022C01D1103000E0B8
:1059B00014301AB107682F43076002E00768AF434D
:1059C0000760F0BD02460020B1F5007F00D100BFA6
:1059D00013880B400BB1012000E00020704701F458
:1059E0000072B2F5007F00D100BFCA430280704749
:1059F00070B50246002400230025002040F66A16F8
:105A0000B14200D100BFC1F3421501F01F030126CE
:105A100006FA03F3012D13D19689334017E00000F5
:105A2000001001400044004000480040004C00408D
:105A3000005000400014014000780040007C00400D
:105A4000022D02D1168A334001E0968A33400C12AF
:105A5000012606FA04F41688344013B10CB1012073
:105A600000E0002070BD10B50022002340F66A144B
:105A7000A14200D100BF0A1201249440A3B2DC432A
:105A8000048010BD10B50446FE48844209D10121AE
:105A90004806FFF7CCFC00214FF00070FFF7C7FC71
:105AA00008E001218806FFF7C2FC00214FF080606A
:105AB000FFF7BDFC10BD30B502460020002314687E
:105AC00024F002041460146844F00104146000E03F
:105AD0005B1C546804F001041CB94FF6FF74A34228
