:020000040800F2
:10000000F83A012011490008510300085303000881
:10001000570300085B0300085F03000800000000AE
:100020000000000000000000000000007D02000849
:100030006303000800000000D902000865320008D0
:100040002B4900082B4900082B4900082B490008C0
:100050002B4900082B4900082B4900088B03000896
:100060002B4900082B4900082B4900082B490008A0
:10007000F10500082B4900082B4900082B4900080E
:100080002B4900082B4900082B490008BD05000832
:10009000B90400082B4900082B4900082B49000827
:1000A0002B4900082B4900082B4900082B49000860
:1000B000D30500082B490008E90D00082B4900086A
:1000C0002B4900082B4900082B4900082B49000840
:1000D0002B490008ED0300082B4900082B490008B4
:1000E000650300082B4900082B4900082B4900082C
:1000F0002B4900082B4900082B4900082B49000810
:100100002B4900082B4900082B4900082B490008FF
:100110002B4900082B4900082B4900082B490008EF
:100120002B4900082B4900082B4900082B490008DF
:100130002B4900082B4900082B490008A705000897
:10014000070500082B4900082B4900082B49000827
:10015000A70300082B4900082B490008FF1A0008D4
:100160002B4900082B4900082B4900082B4900089F
:100170002B4900082B4900082B4900082B4900088F
:100180002B4900082B4900082B4900082B4900087F
:100190002B4900082B4900082B4900082B4900086F
:1001A00000000000000000002B49000800F002F8E9
:1001B00000F054F80AA090E8000C82448344AAF1AD
:1001C0000107DA4501D100F049F8AFF2090EBAE8AB
:1001D0000F0013F0010F18BFFB1A43F0010318477B
:1001E000B0D60000D0D600000A4410F8014B14F03D
:1001F0000F0508BF10F8015B240908BF10F8014B78
:100200006D1E05D010F8013B6D1E01F8013BF9D1C0
:10021000641E03D0641E01F8015BFBD19142E4D35C
:10022000704700000023002400250026103A28BF54
:1002300078C1FBD8520728BF30C148BF0B60704758
:1002400075290BF0718463290BF023860020704719
:100250001FB50DF00EFA1FBD10B510BD0BF066FEF8
:100260001146FFF7F5FF00F068F80BF084FE03B4C9
:10027000FFF7F2FF03BC03F06BF800002C4B19688A
:100280000868B0E8F04F80F30988BFF36F8F4FF034
:10029000000080F3118870470000000008480068E3
:1002A000006880F308884FF0000080F3148862B67D
:1002B00061B6BFF34F8FBFF36F8F00DF00BF00BF8A
:1002C00008ED00E0DFF80C00016841F47001016006
:1002D000704700BF88ED00E0EFF30980BFF36F8F38
:1002E000134B1A681EF0100F08BF20ED108A20E98A
:1002F000F04F106009B44FF0500080F31188BFF345
:100300004F8FBFF36F8F09F079FF4FF0000080F33C
:10031000118809BC19680868B0E8F04F1EF0100F8A
:1003200008BFB0EC108A80F30988BFF36F8F704765
:1003300060010020EFF3058070474FF4407004F037
:1003400007FBB42002F096FF02F047FE00BFFEE775
:10035000704700BFFEE700BFFEE700BFFEE700BF3B
:10036000FEE7704710B54FF4806007F0A5FD38B187
:10037000A848006808B9012000E00020A5490860ED
:100380004FF4806007F0A3FD10BD08B5022007F010
:1003900093FD20B16946A048006808F005FF0220DF
:1003A00007F095FD08BD08B59C499D4806F05FF82B
:1003B000012816D199499A4806F075F89749984846
:1003C00006F0CCF869469748006808F0EDFE009802
:1003D00038B14FF0805094490860BFF34F8FBFF39E
:1003E0006F8F92498E4806F05EF808BD10B540F256
:1003F00025518F4805F0C0F918B18D4805F0FAF87D
:1004000059E040F224418A4805F0B6F9002852D05C
:10041000874805F0EFF8824806F00FF828BB002166
:100420007F4805F0C7FF7E4805F0E7FFC0F12400D4
:100430008049088024217A4805F0DDFF784800686B
:1004400040F40020764908607B49754806F02BF897
:100450000121734805F0AEFF7648008812282AD1A2
:100460007649774800F0C5FD25E000216C4805F08D
:10047000A1FF6B4805F0C1FFC0F124006D49088061
:100480002421674805F0B7FF6548006820F4002084
:10049000634908606849624806F005F80121604830
:1004A00005F088FF63480088122804D16349644836
:1004B000243000F09EFD10BD00B587B002216148D8
:1004C00005F0AEFD58B101AA00215E4805F025FCFB
:1004D000022306AA01A95C48006808F0E9FD022190
:1004E000584805F038FE5949564805F076FD0698FB
:1004F00038B14FF080504C490860BFF34F8FBFF3C5
:100500006F8F07B000BD00B52DED088B85B00221BF
:100510004F4805F085FDE8B302214D4805F01BFE6C
:100520004A494B4805F059FD6A460021484805F004
:10053000F4FB0098A0F2015068BB4648DDF80B10B0
:1005400001609DF80F1001710146B1F902000CF035
:10055000D5FC41EC1B0B9FED400B53EC102B0CF02A
:1005600021FD41EC190B3B4890ED020A10EE101AE8
:1005700008460DF00DF841EC1A0B53EC192B0CF05A
:100580001DFF41EC180B0CF07BFA3249886000200B
:10059000888101E003E000E000BF00BF00BF05B0BC
:1005A000BDEC088B00BD10B50121294805F038FDD0
:1005B00018B10121264805F0CEFD10BD10B501216E
:1005C000204805F02DFD18B101211E4805F0C3FD9E
:1005D00010BD10B50121880706F049FD38B1012191
:1005E000880706F055FD0121880706F03DFD10BD86
:1005F00010B51B491B4805F03AFF012809D11849DD
:10060000184805F050FF1649164805F0A7FF02F0FC
:10061000CEFD10BD9C0242426000002000880020F8
:10062000886402405C00002004ED00E00008002027
:100630000010014000000020000C002010020020EB
:10064000C80100200064004084000020080000323F
:1006500000680040B8010020FCA9F1D24D62503F73
:1006600000880010286002400CB500200190009026
:100670008348006840F480308149086000BF8048AA
:10068000006800F4003000900198401C0190009830
:1006900018B90198B0F5A04FF1D17948006800F47D
:1006A000003010B10120009001E00020009000987F
:1006B000012860D172484030006840F08050704995
:1006C000403108606F48006840F440406D49086060
:1006D0006B48083000686A490831086008460068BD
:1006E00040F4004008600846006840F4A0500860EC
:1006F0006548091F0860081F006840F08070091FE6
:10070000086000BF5E48006800F000700028F9D063
:100710005C48006840F480305A49086000BF59487E
:10072000406800F480300028F9D05648006840F452
:1007300000305449086000BF5248406800F400305F
:100740000028F9D040F20570504908604C48083044
:10075000006820F003004A49083108600846006834
:1007600040F00200086000BF45480830006800F013
:100770000C000828F8D10CBD10B54548006840F4BD
:100780007000434908603E48006840F001003C4961
:10079000086000203A4908310860394800683D493E
:1007A0000840374908603C48091D0860081F006878
:1007B00020F48020091F0860002031490C310860B6
:1007C000FFF752FF4FF0006031498039086010BDDB
:1007D00070B500200022022300240221284D083594
:1007E0002D6805F00C0020B1042806D0082834D16B
:1007F00007E02A4D2A4E356033E02A4D284E3560F9
:100800002FE01F4D2D1D2D68C5F380541C4D2D1D4F
:100810002D6805F03F0154B1224DB5FBF1F5184E9E
:10082000361D3668C6F3881605FB06F209E01B4D37
:10083000B5FBF1F5124E361D3668C6F3881605FB7A
:1008400006F20F4D2D1D2D68C5F301456D1C6B0083
:10085000B2FBF3F5124E356003E0104D104E3560DB
:1008600000BF00BF064D08352D68C5F303150E4EB9
:10087000705D0B4D2D68C540094E356070BD0000A0
:1008800000380240007000400C5A4007003C024013
:1008900088ED00E0FFFFF6FE103000240024F40095
:1008A00004000020001BB70008000020D0ED000A63
:1008B000F4EEC00AF1EE10FA01DD80ED000AD0ED91
:1008C000000AB1EE401AF4EEC10AF1EE10FA03D2BA
:1008D000F1EE400AC0ED000A704783634263016392
:1008E00080ED000AC0ED010A80ED021A704780ED2C
:1008F000000AC0ED010A80ED021ADFED6B1AC0EDAF
:10090000061ADFED691AC0ED071ADFED671AC0EDB0
:10091000081ADFED651AC0ED091A704700B50346E5
:10092000881A00EE100AB8EEC00A83ED050A186BAB
:1009300003283ED193ED000AD3ED050A20EE200AEC
:1009400083ED060A93ED070AD3ED010A93ED051A2C
:1009500000EE810A83ED070A93ED050AD3ED040A40
:1009600030EE600AD3ED020A20EE200A83ED080A79
:10097000D3ED0E0AF8EE600AB0EE600A03F11C0037
:10098000FFF794FF93ED060AD3ED070A30EE200A35
:10099000D3ED080A30EE200A83ED090AD3ED0D0AE3
:1009A000F8EE600AB0EE600A03F12400FFF77EFF64
:1009B00042E0186B04283FD193ED050AD3ED040AF9
:1009C00030EE600AD3ED000A20EE200A83ED060A1D
:1009D00093ED010AD3ED050A20EE200A83ED070A04
:1009E00093ED050AD3ED040AB0EE001A01EE600A99
:1009F000D3ED030A30EE200AD3ED020A20EE200ADE
:100A000083ED080A93ED060AD3ED070A30EE200ABB
:100A1000D3ED080A30EE200AD3ED090A30EE200AA1
:100A200083ED090AD3ED0D0AF8EE600AB0EE600A14
:100A300003F12400FFF73AFF93ED040A83ED030A64
:100A400093ED050A83ED040A93ED090A00BD2DE933
:100A5000F0412DED048B04460D4616461F46B0EEC0
:100A6000408AF0EE608AB0EE419A1048E063104888
:100A70002064B0EE491AF0EE680AB0EE480A3B4630
:100A8000324629462046D4F83CC0E047B0EE491A29
:100A9000F0EE680AB0EE480A2046216C8847BDECAB
:100AA000048BBDE8F081000000000000DB080008B6
:100AB000EF0800081CB50121302004F0E0FA802086
:100AC000009001208DF8040000208DF8060003201E
:100AD0008DF8050001208DF807006946CE4804F026
:100AE0002DF84FF4804000906946CC4804F026F879
:100AF0004FF48041C94804F09DF88021C64804F0B5
:100B000099F81CBD00B58BB00121022004F0FEFA5B
:100B10000121022004F0B3FA02220421C04804F0AB
:100B200098F81020099002208DF8280003208DF8F5
:100B3000290000208DF82A0001208DF82B0009A93A
:100B4000B74803F0FBFF5920ADF818000020ADF8BE
:100B50001A0040F6E66007900020ADF820008DF8FE
:100B6000220006A9AF4805F0CAFD6020ADF80400D8
:100B70000120ADF806000420ADF808000020039025
:100B8000ADF810000820ADF812004001ADF81400D7
:100B90000020ADF8160001A9A24805F045FE01218C
:100BA000A04805F035FE01219E4806F022FA0BB060
:100BB00000BD00B585B00121082004F060FA0121D4
:100BC000880304F0B4FA4FF48060039000208DF89D
:100BD000100003208DF8110001208DF8130003A9E7
:100BE000914803F0ABFF0A21032004F0ACFB4FF463
:100BF0008060009000208DF804000C208DF8050026
:100C000001208DF80600684607F0F0F828208DF8DE
:100C1000080006208DF8090000208DF80A00012048
:100C20008DF80B0002A803F098FE05B000BD1CB5BE
:100C30000121402004F023FA4FF4005000900120DD
:100C40008DF8040000208DF8060003208DF80500C3
:100C500001208DF807006946744803F06FFF1CBD42
:100C600010B5FFF727FFFFF7A4FFFFF7E0FF10BD68
:100C700010B540F6B8306B493431086040F6E66094
:100C800068492C310860962009F07FF940F64950F8
:100C900064492C310860962009F077F940F6D63087
:100CA00060492C310860962009F06FF900205D49F9
:100CB0003431086010BD10B540F6B83059493431B0
:100CC000086040F6D63057492C310860962009F06C
:100CD0005CF940F6495053492C310860962009F0E0
:100CE00054F940F6E6604F492C310860962009F02F
:100CF0004CF900204B493431086010BD10B540F666
:100D0000B83048493431086040F6E66045492C3136
:100D10000860962009F039F940F6495041492C31D4
:100D20000860962009F031F940F6D6303D492C3163
:100D30000860962009F029F900203A49343108600A
:100D400010BD10B540F6B83036493431086040F671
:100D5000E66034492C310860962009F016F940F617
:100D6000E66030492C310860962009F00EF940F613
:100D700049502C492C310860962009F006F90020D2
:100D800028493431086010BD1FB50121042004F04A
:100D9000BDF9312002905920ADF804000020ADF8D3
:100DA0000C00ADF806000121214805F013FD01A952
:100DB0001F4805F0A4FC01211D4805F029FD012272
:100DC00011461B4806F03CF91E208DF80000042057
:100DD0008DF8010000208DF8020001208DF803003D
:100DE000684603F0BAFD1FBD10B50121104806F09A
:100DF0003EF9012804D10F480068401C0D490860E5
:100E000001210B4806F044F910BD10B50020094936
:100E10000860FFF7B9FF10BD001002400014024047
:100E20000004024000040040000C02400018024090
:100E3000000800401800002000B597B001210220F2
:100E400004F01DF90121102004F071F90121880539
:100E500004F015F90121102004F0BEF90021102042
:100E600004F0BAF98020159002208DF85800002077
:100E70008DF85A0003208DF8590000208DF85B0092
:100E800015A9BD4803F05AFE07221146BA4803F0DF
:100E9000E0FEBA4804F090FAB94811900020ADF88D
:100EA0004800ADF84A004FF48060ADF84C000420D3
:100EB000ADF84E000020ADF8500011A9AF4804F085
:100EC000E2FA1021AD4804F04EFC012240F2244128
:100ED000AA4804F016FC01224021A84804F008FCAE
:100EE0000121A64804F057FB25208DF8400006207C
:100EF0008DF8410000208DF8420001208DF843005C
:100F000010A803F02AFD00219E4805F053FA00BF07
:100F10009C48006800F001000028F9D1994805F0CC
:100F20006DF94FF0006001909448001D02909648C2
:100F300003900020049012200590002006904FF4AA
:100F4000806007900020089009904FF480700A900C
:100F50004FF440300B9000200C900D900E900F90AD
:100F600001A9884805F0ECF9002287492431854819
:100F700005F047FA0121834805F04FFA0021814826
:100F800005F018FA01217F4805F014FA17B000BDEA
:100F900010B50021794804F0FEFA10BD10B50446E2
:100FA0000021764804F0F7FA0021764805F002FAAD
:100FB0002146744805F01FFA1021704804F0D3FB55
:100FC0007249704805F06FFA71496E4805F0C6FA2B
:100FD00001216C4805F0EEF90121684804F0DBFAC4
:100FE00010BD0146002901DD08467047484200B2A5
:100FF000FBE700B101B970470278437842EA032267
:10100000C2F30A020A804278D210837842EA43127D
:10101000C2F30A024A8082789211C37842EA8302BC
:10102000037942EA8322C2F30A028A8002795210CB
:10103000437942EAC312C2F30A02CA804279C2F378
:1010400001128A72427912119308CB728279C379A4
:1010500042EA032212B28A81027A437A42EA0322E6
:1010600013B201F10C02CB81827AC37A42EA0322E5
:1010700013B201F10C020B82037B8B74437BCB74A4
:10108000827BC37B42EA03228A82027C437C42EA5F
:10109000032212B20A810A88A2F5806212B20A8083
:1010A0004A88A2F5806212B24A808A88A2F58062DC
:1010B00012B28A80CA88A2F5806212B2CA800A89F6
:1010C000A2F5806212B20A8100BF94E731487047EE
:1010D00010B53049B1F90000FFF783FFB0F52F7F5D
:1010E00000DD24E02B49B1F90200FFF77AFFB0F5EB
:1010F0002F7F00DD1BE02749B1F90400FFF771FFE6
:10110000B0F52F7F00DD12E02249B1F90600FFF7AC
:1011100068FFB0F52F7F00DD09E01E48807A00B936
:1011200005E01C48C07A00B901E0002010BD002095
:101130001849088048808880C88008810220887209
:1011400002211448C17200201249888100211148EF
:10115000C18101828174C17400200E4988820120FE
:10116000E4E710B52420FFF719FF10BD10B52420C7
:10117000FFF714FF10BD0000000402400010014002
:10118000A086010088640240C801002000080020F9
:10119000008800201002002000B58BB00121480615
:1011A00003F0B4FF0121082003F069FF0320099038
:1011B00002208DF8280003208DF8290009A9A348F2
:1011C00003F0BCFC09220021A04803F042FD0922E3
:1011D00001219E4803F03DFD14208DF820000520DC
:1011E0008DF8210000208DF8220001208DF82300C9
:1011F00008A803F0B2FB13208DF8200005208DF81D
:10120000210000208DF8220001208DF8230008A87D
:1012100003F0A3FB8E4804F0F9FA05A804F01AFCC9
:1012200000208DF81A008DF81B008DF81C008DF839
:101230001D008DF81E0001208DF81F0000208DF884
:1012400016008DF8170005208DF8180007208DF87E
:1012500019000320ADF8140005A97D4804F0EFFA49
:1012600000208DF80E008DF80F0001208DF8100081
:101270000020ADF80400ADF80600ADF80800ADF8A8
:101280000A00ADF80C0001208DF8110001A804F04F
:1012900060FB012202216E4804F05AFE0BB000BD33
:1012A00000B58BB00121480603F030FF012188060C
:1012B00003F02CFF0121022003F0E1FE4FF4405027
:1012C000099002208DF828008DF8290009A96148AD
:1012D00003F034FC09220C215E4803F0BAFC092219
:1012E0000D215C4803F0B5FC40208DF8200004205F
:1012F0008DF8210000208DF8220001208DF82300B8
:1013000008A803F02AFB3F208DF8200006208DF866
:10131000210000208DF8220001208DF8230008A86C
:1013200003F01BFB4C4804F071FA05A804F092FB93
:1013300000208DF81A008DF81B008DF81C008DF828
:101340001D008DF81E0001208DF81F0000208DF873
:1013500016008DF8170005208DF8180007208DF86D
:1013600019000320ADF8140005A93B4804F067FA02
:101370000E208DF80E0000208DF80F0001208DF852
:1013800010000020ADF80400ADF80600ADF808002C
:10139000ADF80A00ADF80C0001208DF8110001A88D
:1013A00004F0D7FA012202212B4804F0D1FD0122DA
:1013B0001146294804F0CCFD0BB000BD10B5FFF775
:1013C000EBFEFFF76DFF10BD2DE9F04186B006463C
:1013D0000D4614464FF00008019500208DF80C00D2
:1013E0008DF80D0008208DF80E002088000A8DF879
:1013F0000F0021788DF810106088010A8DF8111007
:10140000A1788DF81210A088010A8DF813102179A7
:101410008DF81410E088010A8DF81510A1798DF867
:10142000161001A9304604F083FB074600BF394679
:10143000304604F015FC30B9404608F101084FF67B
:10144000FF718842F3DB06B0BDE8F081000C02407A
:101450000064004000040240006800400146086843
:10146000704701464948814201D2002070474848F0
:10147000814201D20820F9E74648814201D210207A
:10148000F4E74548814201D21820EFE74348814202
:1014900001D22020EAE74248814201D22820E5E734
:1014A0004048814201D23020E0E73F48814201D2EA
:1014B0003820DBE73D48814201D24020D6E73C4856
:1014C000814201D24820D1E73A48814201D25020DE
:1014D000CCE75820CAE72DE9F04704460E461746E8
:1014E0004FF009080025A946B4F1006F02D304F0BB
:1014F000030008B1BDE8F08706F05CF9002006F0B3
:101500003CF9254604EB87092B48854215D211E0AA
:101510002846FFF7A3FF401C58B12846FFF7A1FF5C
:101520008246022106F09AF98046B8F1090F01D0EF
:1015300002E02D1D4D45EBD300BFB8F1090F0CD1D2
:1015400008E02046316806F0A5FA092800D003E03B
:10155000241D361D4C45F4D300BF012006F00DF9C3
:1015600006F035F900BFC5E730B503460C46154611
:10157000002206E01846FFF771FF44F822001B1D09
:10158000521CAA42F6D330BD704770470040000895
:101590000080000800C000080000010800000208E8
:1015A00000000408000006080000080800000A08FF
:1015B00000000C0800000E080000FF1F1CB50121F0
:1015C000082003F05CFD4FF44070009002208DF87D
:1015D000040000208DF8060003208DF8050000208F
:1015E0008DF807006946494803F0A8FA0722092147
:1015F000464803F02EFB07220821444803F029FB4C
:101600001CBD1FB50121880403F080FD404803F094
:10161000D3FE4FF4E13000900020ADF80400ADF8A7
:101620000600ADF808000C20ADF80A000020ADF867
:101630000C006946364803F026FF0121344803F0C8
:10164000AAFF01224021324804F052F81FBD08B51C
:101650000C208DF8000000208DF8010003208DF88B
:10166000020001208DF80300684603F076F908BDFA
:1016700000B58FB00121480503F001FD0021254888
:1016800004F098FE00BF23482838806A00F001006B
:101690000028F8D11F4804F0B1FD4FF00060009021
:1016A0001B48001D01901C48029000200390082058
:1016B0000490002005904FF4806006900020079071
:1016C00008904FF4807009904FF440300A90002049
:1016D0000B900C900D900E9069460E4804F030FE71
:1016E000012210210B4804F0F2FE0121094804F008
:1016F00061FE0FB000BD10B5FFF760FFFFF781FF7F
:10170000FFF7A5FFFFF7B4FF10BD0000000C02407B
:1017100000480040286002406406002000B597B0F1
:101720000121202003F003FD0121402003F0A7FC4C
:101730000121880503F0A3FC08220921FE4803F0DB
:1017400088FA08220E21FC4803F083FA4FF4007057
:10175000159002208DF8580003208DF859000020C4
:101760008DF85A0001208DF85B0015A9F24803F0AE
:10177000E5F9F24804F042FD0021F04804F01AFEB9
:1017800000BFEE4804F063FE0028FAD14FF020605D
:101790000190EB480290EB480390002004907820E1
:1017A0000590002006904FF480600790002008907C
:1017B00009904FF480700A9000020B9000200C906A
:1017C00003200D9000200E900F9001A9DB4804F03B
:1017D000B7FD0121D94804F0EDFDD948001F03F001
:1017E000EBFD4FF4E13011900020ADF84800ADF86A
:1017F0004A00ADF84C00ADF850000420ADF84E00A2
:1018000011A9CF48001F03F03EFE0121CC48001F64
:1018100003F0C1FE002240F22661C948001F03F018
:1018200070FF002240F22551C548001F03F069FFF8
:10183000012240F22441C248001F03F062FF47200A
:101840008DF8400003208DF841008DF84200012002
:101850008DF8430010A803F080F801224021B84819
:10186000001F03F045FF17B000BD10B5024600236E
:1018700029E0002021E002EB8004D4ED000A441CA2
:1018800002EB840494ED001AF4EEC10AF1EE10FAB2
:1018900011DD02EB800494ED000A441C02EB840489
:1018A000D4ED000A02EB8004C4ED000A441C02EBF4
:1018B000840484ED000A441CE0B24C1EE41A844205
:1018C000D9DC5C1CE3B24C1E9C42D2DC10BD30B5AE
:1018D000034605E013F8010B80EA02049A48025D12
:1018E000081EA1F10101F5D1104630BD70B50546C5
:1018F0000C4600260DB1022C01D8002070BD611EDF
:10190000FF222846FFF7E3FF0646601E285CB04230
:1019100001D10120F2E70020F0E770B52DED028B38
:101920009FED8A0AB0EE408A894804F066FDC0F156
:101930007800C5B20024A4E08248005DA5282DD11E
:10194000611D8048FFF7D2FF002827D07D49601C29
:10195000095C7C4AA01C105C41EA00207D49A1F88A
:1019600001001146E01C085C7A49C8701146601DF0
:10197000095CA01D105C41EA002000B27549C880D6
:101980000846C08801280AD10846B0F801206D4BEE
:10199000E01D19186F4808300AF045F970E06D48ED
:1019A000C088022813D16749E01D085C6949097C99
:1019B00060F30301674801746249E01D085C002080
:1019C0006449097C60F307116248017458E061487A
:1019D000C08803280AD15F48B0F80120594BE01DA8
:1019E00019185C4811300AF01EF949E05948C088BE
:1019F00004280AD15748B0F80120524BE01D1918AD
:101A0000544817300AF00FF93AE05248C0880528C8
:101A10000AD15048B0F801204A4BE01D19184D4832
:101A20002B300AF000F92BE04A48C08806280AD17A
:101A30004848B0F80120434BE01D191845482D30A7
:101A40000AF0F1F81CE04348C08807280AD1414851
:101A5000B0F801203B4BE01D19183E482E300AF02B
:101A6000E2F80DE03B48C088082809D13948B0F8B1
:101A70000120344BE01D1918364830300AF0D3F8F5
:101A8000641CAC42FFF458AF3248D0F81F00324912
:101A900048603048D0F81F003049314A127841F888
:101AA00022002F480078401C2D4908700846007815
:101AB000052821D10020087001202A49087005213D
:101AC0002648FFF7D2FE012409E0244800EB8400F9
:101AD00090ED000A30EE080AB0EE408A641C032C38
:101AE000F3D9B0EE080AC8EE000A1B48C0ED060A9A
:101AF0009FED160AB0EE408ABDEC028B70BD10B5AA
:101B0000002400BF40F224410D48001F03F034FEC2
:101B100088B10B48001F0488001D04880021074875
:101B200004F048FCFFF7F9FE0F49044804F0BBFC41
:101B3000782102481AE01FE0001802404064024089
:101B4000041401402802002087D60008000000008D
:101B500088600240A0020020E0020020180300205C
:101B6000220000201F000020400F001004F043FC62
:101B700001210B4804F01EFC00BF10BD70B50546E6
:101B80000C4600260DB1022C00D870BD611EFF224C
:101B90002846FFF79CFE0646601E2E5400BFF4E761
:101BA0004064024000BFF9488089401C00B2F749F8
:101BB0008881F748C08A401CF549C882F548B0F8CA
:101BC000A000401C00B2F349A1F8A000F248B0F810
:101BD000A000401C00B2F049A1F8A000EF48B0F806
:101BE0004800401C00B2ED49A1F84800002015E073
:101BF00000EB400101EB0011E94A02EB8101B1F871
:101C00004810491C09B200EB400202EB0012E44B01
:101C100003EB8202A2F84810411CC8B20428E7DB9B
:101C2000DA48B0F90C00142804DB0121DD48006813
:101C300006F051FCD648C08A142804DD0221D94898
:101C4000006806F048FCD348B0F9A000142804DD71
:101C50000421D448006806F03EFCCF48B0F9A0004B
:101C6000142804DD0821CF48006806F034FCCB4876
:101C7000B0F94800142805DD4FF48071C9480068A8
:101C800006F029FC002414E004EB440000EB0410EF
:101C9000C34901EB8000B0F94800142807DD201D7E
:101CA000012202FA00F1BF48006806F014FC601C33
:101CB000C4B2042CE8DB0A2008F067F973E71FB50B
:101CC000002400BF08F0A9FC039000BF0022694671
:101CD000B548006807F0EDFA0021B448006806F046
:101CE0009FFD054605F0010000287DD0A948B0F908
:101CF0000800A849B1F90610401AAD49884207DA30
:101D0000A448C088A0F5005000B2A249488016E05F
:101D1000A048B0F908009F49B1F90610401A41F2F5
:101D20002C01884207DD9B48C08800F5005000B2B6
:101D30009849488003E09748C08896494880BDF894
:101D4000060088B99348B0F908009249B1F9021029
:101D5000401A4FF4B4714843400B6E21484300B21F
:101D6000ADF80200002456E04CBBBDF80600BDF8FB
:101D7000081010FB01F000B2ADF802008548B0F980
:101D800008008449B1F90210401A00EE100AB8EEBA
:101D9000C00ADFED880A20EE200A9FED871AC0EE08
:101DA000010ABDF90600404200EE100AB8EEC00A72
:101DB000F4EEC00AF1EE10FA2DD801242BE0012C2C
:101DC00029D1BDF806004042BDF80810484300B2D2
:101DD000ADF802006F48B0F908006E49B1F9021081
:101DE000401A00EE100A00E047E0B8EEC00ADFED4E
:101DF000710A20EE200A9FED701AC0EE010ABDF9AB
:101E0000060000EE100AB8EEC00AF4EEC00AF1EEC9
:101E100010FA00DB0024BDF80000BDF802100844F1
:101E2000BDF80410084400B25D494880BDF80000C8
:101E30004042BDF802100844BDF80410084401B245
:101E40005748A0F84E10BDF80000BDF80210084435
:101E5000BDF80410401A01B25148A0F89A10BDF81C
:101E600000004042BDF802100844BDF80410401ABA
:101E700001B24B48A0F8E6100AE00020484948802B
:101E800000214748A0F84E10A0F89A10A0F8E610DC
:101E9000082103A808F015F818E700BF4FF0FF313C
:101EA0004648006806F0D6FF454801F0B1FFF5E767
:101EB00086B000BF4FF0FF3201A94248006807F02A
:101EC000F8F900BF00BFF5E786B000BF4FF0FF3262
:101ED00001A93D48006807F0ECF90198A0F2012043
:101EE000072873D2DFE800F004162A3E73859700B6
:101EF0009DF812109DF8110041EA002000B2284917
:101F000008800020A1F8480010212648006806F04B
:101F100087FC94E09DF812109DF8110041EA002022
:101F200000B21F49A1F84C0000211D48A0F89410F0
:101F300020211C48006806F073FC80E09DF8121018
:101F40009DF8110041EA002000B21549A1F898005F
:101F500000211348A0F8E01040211248006806F064
:101F60005FFC6CE09DF812109DF8110041EA002022
:101F700000B20B49A1F8E40000210948A0F82C1197
:101F800080210848006806F04BFC58E0B8010020AA
:101F900024060020A80400204C0500205C0400203A
:101FA0002C0300207C0000209000002078000020FE
:101FB000D4EFFFFF0000B4430000004660000020A3
:101FC000F0050020880000208400002036E09DF805
:101FD00010009DF80F1040EA012000B2F649C880B9
:101FE0000020A1F8A0000421F448006806F018FCC5
:101FF00025E09DF810009DF80F1040EA012000B286
:10200000EF49C8800020A1F8A0000821EB48006833
:1020100006F006FC13E09DF812109DF8110041EA4D
:10202000002000B2E74908800020A1F848004FF4E2
:102030008071E248006806F0F3FB00E000BF45E76E
:10204000014648888880C8884880B1F90200B1F903
:102050000420801ADC4A904203DA0888401C00B24F
:102060000880B1F90200B1F90420801A41F22C0273
:10207000904203DD0888401E00B20880B1F90200DA
:10208000B1F90020C2EB4232104470472DED028BB3
:1020900084B04FF0000800BF00BF0027B946BA4621
:1020A000002008EE100A08EE900A00BF08F0B5FA0A
:1020B00001900221C548006806F00DFA0821C348C6
:1020C000006806F008FA00BFC1484088BA49A1F884
:1020D0005400BF480088BA49A1F85400002202A960
:1020E000BC48006807F0E5F8BB4890ED000AB5EE83
:1020F000C00AF1EE10FA05D02021B448006806F0BD
:10210000EAF904E02021B148006806F089FBB8F143
:10211000000F7DD1A848B0F90800A749B1F9061011
:10212000401AA949884207DAA348C088A0F50050A0
:1021300000B2A149488016E09F48B0F908009E49C6
:10214000B1F90610401A41F22C01884207DD9A4885
:10215000C08800F5005000B29749488003E09648D7
:10216000C088954948809648B0F908009449B1F96B
:102170000610401A9449884207DA9148C088A0F5B1
:10218000005000B28E49488016E08D48B0F9080032
:102190008B49B1F90610401A41F22C01884207DD43
:1021A0008748C08800F5005000B28549488003E0A8
:1021B0008348C088824948807F4909894FF4B472B6
:1021C00011FB02F0C11700EBD14149137A4A51814A
:1021D000114649884FF4B47211FB02F0C11700EBAD
:1021E000D1414913744A9181754909894FF4B472F8
:1021F00011FB02F0C11700EBD1414913704A518124
:10220000114649884FF4B47211FB02F0C11700E087
:1022100038E000EBD1414913694A91816648408911
:1022200065498989401A05B2104640891146898955
:10223000401A06B2291E01DB0A4600E04A42052A7E
:102240001FDA301E01DB024600E04242052AF7DABF
:102250004FF001089FED610A5D4880ED020A9FED95
:102260005F0A5F4880ED070A00205549088008464C
:10227000C08848800020888001215448006806F00A
:102280002AF994E0524890ED020ABDEEC00A10EE21
:10229000100A00B2484988814948FFF7D1FE4FF43F
:1022A000B47100FB01F3D81703EBD040401300B228
:1022B0004349888100214548006806F0B1FA044688
:1022C00004F01000102834D107F0100028B93A4863
:1022D000B0F90A903A48B0F90AA004F0200020288A
:1022E0001AD10120344948813B4890ED000ABDEEE7
:1022F000C00A10EE100A00B28881012030494881DE
:10230000354890ED010AB1EE400ABDEEC00A10EE6C
:10231000100A00B2888149E007F02000202845D14A
:102320002548808924494881254880892449488155
:102330003CE007F0100010280DD11F488089A0EB69
:10234000090000B208EE100A1D488089A0EB0A00BF
:1023500000B208EE900A9DED030AF8EEC80A30EECE
:10236000200ABDEEC00A10EE100A00B212494881E0
:102370009DED020AF8EEE80A70EE200A1048B0F966
:10238000080000EE100AB8EEC00A30EE800A5FEDD9
:10239000F70A20EE200A5FEDF80A80EE201ABDEE63
:1023A000C10A10EE100A00B20549488127460821EB
:1023B00001A807F086FD87E6A80400207C00002025
:1023C0004C0500205C040020D4EFFFFF78000020C3
:1023D000B80100208C000020500600200000000002
:1023E000F00500202DED048B88B00024032200218D
:1023F000012006F045FBFD49086003220021012071
:1024000006F03EFBFA49086000BF4FF0FF31F74885
:10241000006806F01FFD0321F648006806F000FA88
:10242000F548006807F080FB0220F4490870FEF7C9
:1024300042FC00BFF24802F0C9F8F14801F0E8FCA4
:10244000641CEF4890ED030A10EE101A08460BF0DA
:102450009FF841EC190BB0EE490AF0EE690A0AF058
:10246000BFF9B0EE408AF0EE608A9FEDE60B53ECC8
:10247000102B51EC180B0AF093FEDBD3E04890EDE3
:10248000050A10EE101A08460BF082F841EC190B01
:10249000B0EE490AF0EE690A0AF0A2F9B0EE408AFD
:1024A000F0EE608A9FEDD70B53EC102B51EC180B1C
:1024B0000AF076FEBED30A2CBCDBFEF742FC0120FC
:1024C000CE490870811ECA48006806F0C3FC02208D
:1024D000CA490870CD48C088CC490881CC48C0881A
:1024E000CB490881142103A809F01CFCC748B0F9A6
:1024F00006000390C648B0F906000490C048406A40
:102500000590BF48C06A0690BD48806A07900522C2
:1025100003A9C048FEF7DFFFFEF7F0FB0020B74934
:102520000870B54804210023CA01CDE90010BAA102
:10253000BE4807F0ABFA68E7014639B3BC4AB2F9C6
:102540000020642A0EDABB4A1268521CB94B1A608A
:102550001A461268282A05DD0122B74B1A7000229C
:10256000B44B1A60B44A1278012A0FD1B34A1268E8
:10257000521CB24B1A60B2491A4612680A2A05DD8B
:102580000022AD4B1A70AD4B1A600146A84A51802B
:10259000704708B500BF08F040F8009000BF002168
:1025A000A848006806F03CF9044614B3012C16D084
:1025B000022C0BD0032C25D17820A3490860091FD9
:1025C000086041F2FC20FFF7B7FF1CE078209E492D
:1025D0000860091F08600020FFF7AEFF13E06420C9
:1025E00099490860091F086041F2FC20FFF7A4FF29
:1025F00009E0642094490860091F08600020FFF783
:102600009BFF00E000BF00BF1421684607F059FCA3
:10261000C5E71CB503220021012006F031FA8B49E1
:10262000086003220021012006F02AFA8849086088
:1026300000BF4FF0FF318548006806F00BFC85486D
:10264000006807F071FA012083490870FEF733FB38
:10265000C8207D49091F0860091D08604FF0FF313F
:102660007B48006806F0F6FB02207B490870FEF705
:1026700045FBFA2005E07449091F0860091D086040
:10268000401E6428F7DA002073490870714803215E
:1026900000234FF40072CDE9001070A1724807F0DA
:1026A000F5F9C6E7002500BF4FF0FF316F4800681D
:1026B00006F0D0FB00206E49C88202216D480068F8
:1026C00006F0AEF86A4890F9090001287ED0022889
:1026D00002D003287BD1DFE06548408A012804D17D
:1026E00041F28830644908801EE06148408A02282F
:1026F00004D14EF678406049088015E05C48408A75
:10270000042804D14EF684205B4988800CE05848A8
:10271000408A082804D141F27C505749888003E060
:1027200000205549888008805148408A402805D1BA
:1027300032205149C8803C20088107E04C48408A3B
:10274000802803D100204C49C88008814848408A2D
:10275000102805D110212748006805F0BCFE08E0CC
:102760004348408A202804D110212248006806F0FE
:1027700057F800211F48006806F052F804463C480C
:10278000007C012805D101212E48006805F0A3FE38
:1027900004E001212B48006806F042F80221294894
:1027A000006805F098FE04211248006805F093FEC9
:1027B00004F01000C8B9304890ED040A2C48B0F974
:1027C0000A0000EE900AF8EEE00A01E0C9E0DDE060
:1027D0009FED2A1A00EEC10A274880ED040A90ED09
:1027E000030A2348B0F90C004AE054E06C000020D2
:1027F00070000020780000205000002025000020FC
:10280000F00500207B14AE47E17A843FA804002045
:102810004C0500200000060867696D62616C436F1B
:102820006E74726F6C7461736B0000008D20000811
:102830005C040020A4000020AC000020A8000020C0
:1028400024FAFFFF740000203818004064000020C4
:1028500068000020340000202400002063616C69BF
:102860007461736B00000000932500085C00002079
:10287000240600207C0000203C060020295C8F3DBF
:1028800000EE900AF8EEE00A9FEDFE1A00EE810AD3
:10289000FD4880ED030A7AE0FC480088A0F58060DE
:1028A00000EB8000400000B2F7498880F74840887C
:1028B000A0F5806000EB8000400000B2088000209E
:1028C000C88004F0100020BB084690ED040AEF48D1
:1028D000B0F90400A0F5806000EE900AF8EEE00A7E
:1028E0009FEDEB1A00EEC10A084680ED040A90ED58
:1028F000030AE648B0F90600A0F5806000EE900AF1
:10290000F8EEE00A9FEDE31A00EEC10A084680EDFA
:10291000030ADE48007A012805D10321DE48006859
:1029200005F07EFF17E0D948007A03280AD102217A
:10293000D948006805F0CFFD0121D748006805F0AF
:102940006FFF08E0D148007A022804D10321D24861
:10295000006805F0C0FD0421D048006805F0BBFD0B
:1029600015E00020C8498880088048800321CA48B3
:10297000006805F055FF0421C848006805F050FFC5
:102980000821C648006805F0A6FD00E000BF00BFB2
:10299000BD4890ED030AB5EEC00AF1EE10FA00D181
:1029A0000125012D1CD1B84890ED030ADFEDBC0ACA
:1029B000B4EEE00AF1EE10FA04DD9FEDB90A80ED05
:1029C000030A0DE0B04890ED030ADFEDB60AB4EE5D
:1029D000E00AF1EE10FA03D29FEDB20A80ED030A8D
:1029E00002230022A849B048006806F003F9022338
:1029F0000022A5490C31AD48006806F0FBF8A34859
:102A0000B0F90000B0F5B67F0FD1A048B0F90600CC
:102A1000B0F5B67F09D1A648007830B900231A4630
:102A20001946A448006806F0E5F89848B0F9000097
:102A300040F29461884210D19448B0F90600B0F594
:102A4000B67F0AD19A480078012806D100231A4699
:102A500019469948006806F0CDF88C48B0F9000096
:102A6000B0F5B67F10D18948B0F9040040F2946106
:102A7000884209D19148007830B900231A46194696
:102A80008F48006806F0B6F88048B0F9000040F2C0
:102A9000946188427FF408AE7C48B0F90400B0F538
:102AA000B67FF7D1854800780128F3D100231A4674
:102AB00019468448006806F09DF8F5E508B500273A
:102AC000B846002400BF07F0A8FD0090B0EE081A39
:102AD000F7EE000AB1EE0C0A4FF47A73DA00042123
:102AE0007948FDF7B4FF002515E005EB450101EB42
:102AF0000511764A02EB8101081DB7EE001ADFEDE1
:102B0000650AB0EE000A4FF47A73DA000421FDF78B
:102B10009EFF681CC5B2042DE7DBB9EE041ADFED99
:102B20006C0A9FED6C0A4FF47A739A0003216A488D
:102B3000FDF78DFF9FED661ADFED650A9FED670AD1
:102B40004FF4FA635A00032163484830FDF77FFFD2
:102B5000BAEE041ADFED620AB9EE0C0A4FF47A738A
:102B60009A0003215F48FDF772FF9FED591ADFEDD0
:102B70005E0AB2EE010A4FF4FA635A000321594883
:102B80004830FDF764FF00BF00214448006805F0AD
:102B900047FE064606F0080008282DD1201D04B285
:102BA0006421504810388164C0F890104A481038A9
:102BB0008164C0F89010C0F88C404A481038C0F8C2
:102BC0008C40B4F57A6F17DB08213448006805F0B3
:102BD00027FE41481038C0F88C4042481038C0F8F1
:102BE0008C404FF4FA718164C0F890103A48103864
:102BF0008164C0F8901000243A481038B0F90C20D5
:102C0000B0F90A101030FDF789FEBDEEC00A10EED3
:102C1000100A0FFA80F833481038A0F85680B0F93F
:102C20005420B0F956105830FDF778FEBDEEC00ABA
:102C300010EE100A00B22D49488027481038B0F92C
:102C40000C20B0F90A101030FDF768FEBDEEC00A86
:102C500010EE100A07B220481038A0F85670B0F9EC
:102C60005420B0F956105830FDF758FEBDEEC00A9A
:102C700010EE100A00B21D4908801348001FB0F979
:102C8000002035E06666E63F3C0600202406002072
:102C9000A69B443BCDCCCC3D7400002078000020A6
:102CA00000800944008009C4900000208C000020AE
:102CB000240000206400002068000020250000207F
:102CC0006C00002070000020600400202C03002015
:102CD000000000006666E6C0B8040020000048421C
:102CE0000AD7A3BC5C050020CDCC4C3D940000204D
:102CF000B0F90210001DFDF711FEBDEEC00A10EE86
:102D0000100A00B2BC498880002522E005EB45038B
:102D100003EB0513DFF8E4C23CF9232005EB450380
:102D200003EB05130CEB8303B3F9021005EB45032A
:102D300003EB05130CEB8303181DFDF7EFFDBDEE50
:102D4000C00A10EE100A00B2AD4921F81500681C47
:102D5000C5B2042DDADB06F00600062806D1A64A25
:102D600040F2FF11A748FEF72FFB18E0002008E013
:102D70000021A14A22F81010A14A22F81010411C8B
:102D8000C8B20428F4DB9C4A40F2FF119D48FEF7CC
:102D90001BFB9B4A4FF400719A48FEF715FB984ABB
:102DA0004FF400719848FEF70FFB0421684607F0C6
:102DB00088F8E9E688B0FDF753FFFEF73DF84FF4D9
:102DC000E13000F0D5FAFEF7F9FAFEF794FCFEF7D1
:102DD000A5FC01F08DF8142103A808F0A3FF05223B
:102DE00003A98A48FEF7C0FB039800B2884908810E
:102DF000049800B287490881874905984862069877
:102E0000C86207988862642007F0BFF8002400BFFA
:102E10008248B0F90200B0F5806F21D1642007F03C
:102E2000B4F8601CC4B2282C1CDB00247C480521AB
:102E300000234FF40072CDE90010AFF2246179480D
:102E400006F024FE7848062100238022CDE90010F8
:102E500076A17B4806F01AFE002006F065FE01E030
:102E6000FDF7EAFF322007F090F8D1E71CB505F036
:102E700082FA00220121084605F002FE714908602D
:102E800000221421012005F0FBFD6F49086000229B
:102E90001421012005F0F4FD6C490860002208218E
:102EA000012005F0EDFD6A49086000220A21012099
:102EB00005F0E6FD6749086003220021012005F0C6
:102EC000DFFD6549086003220021012005F0D8FDDF
:102ED0006249086005F0F2FA6149086005F0EEFA0F
:102EE0006049086005F0EAFA5F4908605F4804211C
:102EF00000238022CDE900105DA1604806F0C6FDE8
:102F00005F48022100234A02CDE900105DA160481C
:102F100006F0BCFD5F48032100234FF40072CDE9A9
:102F200000105DA1614806F0B1FD61480421002355
:102F30008022CDE90010AFF2DC615E4806F0A6FD0C
:102F40005D48072100238022CDE900105BA15E4887
:102F500006F09CFD5D48052100234FF49672CDE9F3
:102F600000105BA15E4806F091FD5E48052100233C
:102F70004FF49672CDE900105BA15F4806F086FD24
:102F80005E48052100238022CDE900105CA1604845
:102F900006F07CFD5F48032100234FF40072CDE969
:102FA00000105DA1604806F071FD60480321002318
:102FB0004FF40072CDE900105DA1624806F066FD95
:102FC00005F000FA00BF4FF480415F4801F03DFE7C
:102FD0004FF4FA7006F0D9FFF5E71CB55B48022103
:102FE0000023C822CDE9001059A15C4806F04EFD2F
:102FF00007F0C6FA1CBD0000940000202C0300203E
:103000009C000020006400400068004000000608AA
:10301000A80400204C050020F00500202406002014
:10302000500000208D2000084800002050494443F3
:10303000616C63756C6174655461736B00000000B2
:10304000BD2A0008800000208400002088000020A5
:103050008C000020900000205C0000206000002018
:1030600074000020780000207C0000204400002034
:10307000627370696E69747461736B00B52D0008BA
:1030800028000020646275737461736B0000000097
:10309000A5260008340000206672694D6F746572C1
:1030A000436F6E74726F6C7461736B0093250008CC
:1030B000300000201326000854000020696D75635D
:1030C000616C697461736B00E523000838000020AF
:1030D00043616E31526563656976657461736B0037
:1030E000C91E00083C00002043616E3252656365D2
:1030F0006976657461736B00B11E000840000020A2
:10310000494D55526563656976657461736B00005E
:103110009B1E00084C000020434D436F6E74726F7D
:103120006C7461736B000000BF1C00085800002025
:103130004F66666C696E656465746563747461730B
:103140006B000000A51B0008001402402C000020AA
:1031500073746172745F7461736B00006D2E00088C
:1031600070B504460D46FF20374908700846447084
:103170008570FE20C87000203449087012E000BF3E
:103180004021334802F0E2FA0128F9D12E482F4AB3
:103190001278815C2E4802F029FA2C480078401CF5
:1031A0002A490870294800780428E8DB70BD00200F
:1031B00000BF10E02749095CFF290BD1254AC11D3A
:1031C000515CFE2906D1411C1144234A0B6813604F
:1031D00089889180401C0A28ECDB1F49B1F9001056
:1031E00000EE101AB8EEC00AB1EE400ADFED1B0A7D
:1031F00080EE201A1A4981ED001A1749B1F9021020
:1032000000EE101AB8EEC00AB1EE400ADFED130A64
:1032100080EE201A124981ED011A0F498988104A5F
:10322000118111460989012904D1114691ED010A44
:1032300081ED010A0A490989022904D1084991ED61
:10324000010A81ED010A7047B3000020B700002099
:103250000048004064060020AD0000200000C84285
:103260005006002010B507F054FC012801D005F0ED
:10327000C5F810BD70B50446042001F0BBFB324810
:10328000047025464FF47A70454301202F49088089
:103290004FF0E020006940F002004FF0E0210861AB
:1032A00008464561006940F00100086170BD70B5D5
:1032B000034600224FF0E0267569234E367803FB63
:1032C00006F44FF0E026B16910E04FF0E026B06957
:1032D00088420BD0884202D20E1A324402E02E1AE3
:1032E0000E4432440146A24200D300E0EDE700BFA5
:1032F00070BD70B5044607F00CFC012811D01348CE
:103300000088844206DB1148008894FBF0F52846CB
:1033100006F03BFE0D48008894FBF0F100FB1140E5
:1033200084B24FF47A7104FB01F0FFF7C0FF70BD67
:1033300030B50446002504E04FF47A70FFF7B7FF7C
:103340006D1CA542F8D330BDB8000020BA000020A3
:10335000014600BF00207047C2B2254B1A8000BF53
:10336000234A121F128802F04002002AF8D0704748
:1033700010B586B004460121082001F080FE01212D
:10338000480401F0C3FE072205211A4801F061FC40
:1033900007220621174801F05CFC02208DF814007A
:1033A0008DF8150000208DF8160001208DF817000B
:1033B0006020049004A90F4801F0C0FB0094002095
:1033C000ADF80400ADF80600ADF80800ADF80C004B
:1033D0000C20ADF80A0069460548001F02F053F8BA
:1033E00001210348001F02F0D6F806B010BD00000E
:1033F00004440040000C0240F0EE400AF6EE001AD1
:1034000060EEA11AB0EE611AB0EE600A10EE100A7A
:10341000FE49A1EB600000EE100A21EE002AF7EE53
:10342000081A42EE401A61EE801AB0EE610A704747
:1034300030B587B00546F64A0DF11A0006A9031FFC
:10344000CDE90102009105AA891F04A800F0B5FF8B
:1034500000241DE0032C0BDA04A830F9140000EE60
:10346000100AB8EEC00A05EB840080ED000A0EE0F9
:1034700004A830F9140000EE100AB8EEC00ADFED1F
:10348000E50A80EE201A05EB840080ED001A641C2A
:10349000062CDFDB07B030BD00B52DED108B9BB0E7
:1034A000F0EE40AAB0EE60BAF0EE41BAB0EE61DAEA
:1034B000B0EE42CAF0EE62CAB0EE43AAF0EE638A02
:1034C000B0EE449AD44890ED000AD0ED000A20EE08
:1034D000200A8DED0B0A90ED000AD048D0ED000ACD
:1034E00020EE200A8DED0A0ACB4890ED000ACC4868
:1034F000D0ED000A20EE200AF0EE40EAC64890ED3A
:10350000000AC848D0ED000A20EE200A8DED090A15
:10351000C24890ED000AD0ED000A20EE200A8DEDA1
:10352000080A90ED000ABE48D0ED000A20EE200AFD
:103530008DED070AB94890ED000ABA48D0ED000AAF
:1035400020EE200AB0EE40FAB54890ED000AD0ED2A
:10355000000A20EE200A8DED060A90ED000AB1481F
:10356000D0ED000A20EE200A8DED050A90ED000A4C
:10357000D0ED000A20EE200A8DED040A01F0ECF8EF
:10358000A949086008460068A8490968884210D21D
:10359000A64800684FF6FF71081AA3490968084455
:1035A00000EE100AB8EE400ADFEDA10AC0EE209A44
:1035B0000CE09D4800689D490968401A00EE100A19
:1035C000B8EE400ADFED9A0AC0EE209A96480068ED
:1035D000964908606DEE0D0A4CEE0C0A4CEEAC0AF2
:1035E000B0EE600AFFF708FFB0EE408A2DEE080A41
:1035F000B0EE40DA2CEE080AB0EE40CA2CEE880A93
:10360000F0EE40CA6AEE0A0A48EEA80A49EE090A34
:10361000B0EE600AFFF7F0FEB0EE408A2AEE080A2C
:10362000B0EE40AA28EE880AF0EE408A29EE080A99
:10363000B0EE409AB0EE000A6AEE000A9DED060A6E
:10364000B6EE001A31EE401A9DED040A31EE400A42
:1036500020EE800AF0EE000A68EEA01ADDED070AFF
:103660009DED091A70EEC10A01EEA00AF0EE000A03
:1036700069EE200A3FEE2E1A00EE810A8DED1A0A3D
:10368000B0EE000A2AEE001A9DED070ADDED090AE8
:1036900030EE200A21EE000AF0EE000A28EEA01A11
:1036A000DDED080AF6EE001A71EEE01ADDED040A0F
:1036B00071EEE00A01EE200AF0EE000A69EE201A2F
:1036C000DDED050A9DED0A1A70EEC10A01EEA00AB1
:1036D0008DED190AB0EE000A2AEE000A7FEE6E0A9E
:1036E00020EE200AF0EE000A68EEA01ADDED050AD1
:1036F0009DED0A1A70EE810A01EEA00AF0EE000AB2
:1037000029EE201ADDED080AF6EE001A71EEE01A35
:10371000DDED060A71EEE00AF0EE40DA41EE20DA65
:103720009DED1A0A60EE000A9DED190A40EE000AAE
:1037300010EE901A084609F02BFFCDE900019DED2F
:10374000000B09F057F88DED020B9DED020B51ECCB
:10375000100B09F095F90FEE900AB0EE6DEA3FEE0E
:103760006E0AF0EE000A20EE200A8DED180A9DED9B
:103770000A0ADDED050A30EE200AF0EE000A20EE1E
:10378000200A8DED170A9DED0B0ADDED080A70EE9B
:10379000600A9DED060A70EEC00A9DED040A30EE47
:1037A000800A8DED160AB0EE000A6FEE800A9DEDDC
:1037B000060AB6EE001A31EE401A9DED040A31EE0B
:1037C000400A20EE800AF0EE4EDAF0EE000A6DEECE
:1037D000A00A3FEE6E1A00EE810A8DED150AB0EEDA
:1037E000000A2FEE801A9DED070ADDED090A30EE82
:1037F000600A21EE000AF0EE4EDAF0EE000A6DEEFD
:10380000A01ADDED0A0A9DED051A13E0DF59375FB6
:10381000F005002033330342CC000020D00000200C
:10382000D4000020D8000020E8000020E4000020A0
:103830000024F44970EE810A01EEA00A8DED140A0D
:10384000B0EE000A2FEE800A7EEE8F0A20EE200AEC
:10385000F0EE4EDAF0EE000A2DEEA01ADDED080AC9
:10386000F6EE001A71EEE01ADDED060A71EEE00ADE
:1038700001EE200A8DED130A9DED160A6CEE000A8A
:103880009DED170A4CEEC00A9DED130A28EE801A32
:103890009DED140A09EE401A30EE810A8DED120AF0
:1038A0009DED180A6CEE800A9DED160A4DEE400A59
:1038B0009DED150A29EE001A9DED130A0AEE401A35
:1038C00030EE810A8DED110A9DED170A6DEE000AAA
:1038D0009DED180A4CEE400A9DED140A2AEE001ADE
:1038E0009DED150A08EEC01A30EE810A8DED100A22
:1038F0009DED120AB5EEC00AF1EE10FA61D09DED11
:10390000110AB5EEC00AF1EE10FA5AD09DED100A78
:10391000B5EEC00AF1EE10FA53D09DED120ADFEDBC
:10392000FE0A60EE200AFD4890ED000A00EEA90AAA
:1039300080ED000A9DED110ADFEDF70A60EE200A26
:10394000F74890ED000A00EEA90A80ED000A9DED0F
:10395000100ADFEDF10A60EE200AF24890ED000A4D
:1039600000EEA90A80ED000A9DED120AB0EE001AE1
:10397000F0EE6A0A41EE000AE84890ED000A30EEE7
:10398000800AF0EE40AA9DED110AB0EE001AF0EEAA
:103990004B0A41EE000AE24890ED000A30EE800A40
:1039A000B0EE40BA9DED100AB0EE001AF0EE6B0AD0
:1039B00041EE000ADB4890ED000A30EE800AF0EE9E
:1039C00040BAD94890ED000AB1EE400A20EE2A0A2A
:1039D000D648D0ED000A00EECB0AD54890ED001A8B
:1039E000F0EE400A41EE6B0AD24890ED000A00EE7C
:1039F000A90A8DED0F0A90ED000A20EE2A0ACB48A5
:103A0000D0ED000A00EEAB0AC94890ED001AF0EEC6
:103A1000400A41EE4B0AC44890ED000A00EEA90AA4
:103A20008DED0E0AC34890ED000A20EE0B0ABE4849
:103A3000D0ED000A00EEEB0ABD4890ED001AF0EE62
:103A4000400A41EE2A0AB94890ED000A00EEA90AA0
:103A50008DED0D0AB74890ED000A20EE2B0AB24812
:103A6000D0ED000A00EE8B0AB04890ED001AF0EE9F
:103A7000400A41EE6A0AAE4890ED000A00EEA90A3B
:103A80008DED0C0ADDED0F0A20EEA01ADDED0E0A19
:103A900000EEA01ADDED0D0A00EEA01ADDED0C0A15
:103AA00000EEA01AB0EE410AFFF7A6FCB0EE408A85
:103AB0009DED0F0A20EE080A9E4880ED000A9DED5C
:103AC0000E0A20EE080A984880ED000A9DED0D0AC6
:103AD00020EE080A954880ED000A9DED0C0A20EEC4
:103AE000080A934880ED000A1BB0BDEC108B00BDA6
:103AF00030B52DED0C8B87B005460C469FED8E0A38
:103B00008DED020A9FED8C0A8DED010A9FED8A0A68
:103B10008DED000A2046FFF78BFC94ED050ADFEDE2
:103B2000870A20EE200ADFED860A80EE201AB0EE2A
:103B3000418A94ED040ADFED810A20EE200ADFEDD0
:103B4000800A80EE201AF0EE418A94ED030ADFED40
:103B50007B0A20EE200ADFED7A0A80EE201AB0EE12
:103B6000419A94ED020AF0EE402A94ED010AB0EE7B
:103B7000402A94ED000AF0EE401A9FED6F4ADFED07
:103B80006E3A9FED6D3AB0EE481AF0EE680AB0EE6C
:103B9000490AFFF781FC674890ED000A8DED030AA2
:103BA000614890ED000A8DED040A604890ED000A2E
:103BB0008DED050A5E4890ED000A8DED060A9DED3B
:103BC000050AF8EE000A20EE200ADDED050A20EED7
:103BD000200ADDED060AB0EE001A60EE810A9DEDC6
:103BE000061A00EEC10AF7EE000A30EE200A10EEC7
:103BF000101A084609F0CCFC41EC1C0B9DED040AA0
:103C0000F0EE000A20EE200ADDED050A20EE200A83
:103C1000DDED030AB0EE001A60EE810A9DED061A92
:103C200000EE810A10EE101A084609F0B1FC41ECD2
:103C30001D0BB0EE4C1AF0EE6C1AB0EE4D0AF0EE21
:103C40006D0A08F0D5FCB0EE40BAF0EE60BA51EC67
:103C50001B0B08F008FF41EC1A0B9FED3A0B53ECDD
:103C6000102B09F09FF941EC190B9FED380B53EC29
:103C7000102B08F0EBFF41EC180B08F001FF00EEF1
:103C8000100A85ED000A9DED040AF8EE000A20EE08
:103C9000200ADDED060A20EE200ADDED030AB0EE73
:103CA000001A60EE810A9DED051A00EE810A10EE01
:103CB000101A084609F06CFC41EC1C0BB0EE4C0AE3
:103CC000F0EE6C0A08F078F9B0EE40BAF0EE60BAA7
:103CD00051EC1B0B08F0C7FE41EC1A0B9FED190BC2
:103CE00053EC102B09F05EF941EC190B9FED170B0B
:103CF00053EC102B08F0AAFF41EC180B08F0C0FEA3
:103D000000EE100A85ED010A9DED040AF8EE000AA6
:103D100020EE200A1EE000000AD7233CC00000204D
:103D2000C4000020C8000020D0000020D4000020E3
:103D3000D8000020CC00002000000000DB0F49402C
:103D40000000344300000000008066400000006076
:103D5000FB210940DDED040A20EE200ADDED050A15
:103D6000B0EE001A60EE810A9DED051A00EEC10A60
:103D7000F7EE000A30EE200A10EE101A084609F09D
:103D800007FC41EC1B0B9DED050AF0EE000A20EE4E
:103D9000200ADDED060A20EE200ADDED030AB0EE72
:103DA000001A60EE810A9DED041A00EE810A10EE01
:103DB000101A084609F0ECFB41EC1C0BB0EE4B1A54
:103DC000F0EE6B1AB0EE4C0AF0EE6C0A08F010FC44
:103DD000B0EE40AAF0EE60AA1FED260B53EC102BBC
:103DE00051EC1A0B09F0DEF841EC190B1FED290B11
:103DF00053EC102B08F02AFF41EC180B08F040FEA2
:103E000000EE100A85ED020A07B0BDEC0C8B30BD48
:103E100010B58CB00446002009900A900B90242124
:103E2000684607F07FFF694609A8FFF761FE9DED30
:103E3000030A84ED030A9DED040A84ED040A9DED56
:103E4000050A84ED050A9DED0A0A84ED060A9DED3A
:103E50000B0A84ED080A94ED070AD4ED050A9FEDDC
:103E6000041A00EE810A84ED070A0CB010BD0000B0
:103E70006F12833A1CB50121102001F000F90220D5
:103E8000009000208DF8040003208DF8050002202A
:103E90008DF8070069461B4800F050FE1CBD08B5B0
:103EA00007208DF8000006208DF8010000208DF815
:103EB000020001208DF80300684600F04EFD08BDA9
:103EC0001CB50121880301F032F90121042001F021
:103ED0003AFA0220009000208DF804000C208DF8A2
:103EE000050001208DF80600684603F07FFF1CBD29
:103EF00010B500F025FCFFF7BDFFFFF7D0FFFFF77F
:103F0000DFFF10BD0010024070B505460C460020D2
:103F1000F949086005F07F00F84908700846007804
:103F200000F0C9FCF5480470007800F0C4FC0120E2
:103F3000F349C1F89802002070BD10B50446002076
:103F4000ED49086044F08000EE49087008460078AA
:103F500000F0B1FC44F0800000F0ADFCEA490870CC
:103F60000120E749C1F89802E748007810BD10B574
:103F7000044644F08000E54908700846007800F0E7
:103F80009AFCE34908700846007810BD70B50446F5
:103F90000D4600212A20FFF7B7FF0220FFF7A9F9FD
:103FA00021462920FFF7B0FF0220FFF7A2F929469A
:103FB0006420FFF7A9FF0220FFF79BF981212A2047
:103FC000FFF7A2FF0A20FFF794F970BD70B5044611
:103FD00021463220FFF798FF0A20FFF78AF9802157
:103FE0003420FFF791FF0A20FFF783F93520FFF710
:103FF000A4FF054600213420FFF786FF0A20FFF7C3
:1040000078F9284670BD70B504460E46154621461F
:104010002820FFF779FF0220FFF76BF90A212920FA
:10402000FFF772FF0220FFF764F901216420FFF718
:104030006BFF0220FFF75DF944F080012520FFF7B8
:1040400063FF0220FFF755F931462620FFF75CFF9A
:104050000220FFF74EF903213420FFF755FF02201D
:10406000FFF747F903216720FFF74EFF0220FFF714
:1040700040F981212A20FFF747FF0620FFF739F991
:1040800045F080012720FFF73FFF0720FFF731F9B8
:1040900070BD10B530216A20FFF736FF0A20FFF708
:1040A00028F90D212420FFF72FFF0A20FFF721F91F
:1040B0000E212820FFF728FF0A20FFF71AF98E218A
:1040C0003120FFF721FF0A20FFF713F901210B2010
:1040D000FFF75CFF0020FFF779FF102801D00120D7
:1040E00010BD0A20FFF705F900210A20FFF74EFF57
:1040F0000A20FFF76BFF08B10220F1E70A20FFF763
:10410000F8F800210B20FFF741FF0B20FFF75EFFBF
:1041100008B10320E4E70A20FFF7EBF8242141204F
:10412000FFF734FF4120FFF751FF242801D004207E
:10413000D6E70A20FFF7DDF8C0214220FFF726FF6F
:104140004220FFF743FFC02801D00520C8E70A201E
:10415000FFF7CFF800212A20FFF7D6FE0A20FFF74D
:10416000C8F800213420FFF7CFFE0A20FFF7C1F87E
:10417000062203210E20FFF746FF6420FFF7B9F85F
:104180000020ADE710B50446E006010E1C20FFF745
:10419000BBFE10BD10B50446E006010E1B20FFF764
:1041A000B3FE10BD2DE9F04304460D46DDE9076777
:1041B00000200021012041E0DFF858C13CF81080C8
:1041C000A0F1010CDFF84C9129F81C8009F1160CC4
:1041D0003CF81090A0F1010CDFF8388108F11608C6
:1041E00028F81C9008F1160C3CF81090A0F1010C76
:1041F00008F1160828F81C9008F1160C3CF81090ED
:10420000A0F1010C08F1160828F81C9008F1160C12
:104210003CF81090A0F1010C08F1160828F81C9049
:1042200008F1160C3CF81090A0F1010C08F11608EA
:1042300028F81C9000F1010C0CF0FF000A28BBDBF1
:10424000DFF8D0C0ACF81240ACF82850ACF83E20F3
:10425000ACF85430ACF86A60ACF88070002008E02C
:10426000DFF8B0C03CF910C0614400F1010C0CF063
:10427000FF000A28F4DB4FF00A0C91FBFCFC0FFA5C
:104280008CFCDFF89080A8F814C0002100200AE020
:10429000DFF880C00CF1160C3CF910C0614400F14D
:1042A000010C0CF0FF000A28F2DB4FF00A0C91FB26
:1042B000FCFC0FFA8CF8DFF85CC0ACF82A80002117
:1042C00000200AE0DFF84CC00CF12C0C3CF910C0C7
:1042D000614400F1010C0CF0FF000A28F2DB4FF002
:1042E0000A0C91FBFCFC0FFA8CF8DFF828C0ACF844
:1042F00040800021002018E09882424226010020E0
:104300000080424228010020270100202A010020CD
:1043100029010020A2060020DFF844C43CF910C0A7
:10432000614400F1010C0CF0FF000A28F4DB4FF0AF
:104330000A0C91FBFCFC0FFA8CF8DFF824C4ACF1FA
:10434000420CACF85680002100200AE0DFF810C4CF
:104350000CF1160C3CF910C0614400F1010C0CF09A
:10436000FF000A28F2DB4FF00A0C91FBFCFC0FFA6D
:104370008CF8DFF8ECC3ACF1420CACF86C80002197
:1043800000200AE0DFF8D8C30CF12C0C3CF910C077
:10439000614400F1010C0CF0FF000A28F2DB4FF041
:1043A0000A0C91FBFCFC0FFA8CF8DFF8B4C3ACF1FB
:1043B000420CACF88280BDE8F0832DE9F04786B06E
:1043C00005460E4617469846DDE90E9A109C0020D9
:1043D000E4490860BB2000F06EFA3B20FFF7C7FD00
:1043E0008DF808003C20FFF7C2FD8DF809009DF80C
:1043F00009009DF8081040EA012000B2DA4908805F
:104400003D20FFF7B4FD8DF80A003E20FFF7AFFD19
:104410008DF80B009DF80B009DF80A1040EA012072
:1044200000B2D24908803F20FFF7A1FD8DF80C00B3
:104430004020FFF79CFD8DF80D009DF80D009DF8C4
:104440000C1040EA012000B2C94908804120FFF762
:104450008EFD8DF80E004220FFF789FD8DF80F00CC
:104460009DF80F009DF80E1040EA012000B2C149EE
:10447000C8804320FFF77BFD8DF810004420FFF734
:1044800076FD8DF811009DF81100BB490989401A8D
:104490009DF8101040EA012000B2B849088045207C
:1044A000FFF765FD8DF812004620FFF760FD8DF8DF
:1044B00013009DF81300B0494989401A9DF8121065
:1044C00040EA012000B2AE4908804720FFF74FFDC7
:1044D0008DF814004820FFF74AFD8DF815009DF86F
:1044E0001500A5498989401A9DF8141040EA012059
:1044F00000B2A44908800120A349C1F89802A1484C
:10450000B0F900009E49B1F90010CDE900109B48B8
:10451000B0F900309648B0F900209448B0F9001086
:104520009148B0F90000FFF73DFE8D484238808A7F
:1045300028808B484238408D308089484238B0F816
:104540004000388086484238B0F85600A18C401AA6
:1045500000B2A8F8000082484238B0F86C00218D03
:10456000401A00B2A9F800007D484238B0F8820035
:10457000A18D401A00B2AAF8000006B0BDE8F0878D
:1045800070B5DDE90445764E423EB68A0680744E2B
:10459000423E768D0E80724E423EB6F840601680E6
:1045A0006F4E423EB6F85660103E36B21E806C4EDC
:1045B000423EB6F86C60761D36B22680684E423EAA
:1045C000B6F88260223636B22E8070BD2DE9F04FEB
:1045D00087B00446002500260027A846A946AA461B
:1045E000AB4600BF11E06420FEF761FE674A0DF1A3
:1045F0001A0006A9031FCDE90102009105AA891F2F
:1046000004A8FFF7DAFE681CC5B2322DEBDB0025EB
:1046100023E0C820FEF74BFE5C4A0DF11A0006A904
:10462000031FCDE90102009105AA891F04A8FFF725
:10463000C4FEBDF910008144BDF912008244BDF9E9
:1046400014008344BDF916000644BDF91800074460
:10465000BDF91A008044681CC5B2642DD9DB642002
:1046600096FBF0F06062642097FBF0F0A06264209B
:1046700098FBF0F0E06207B0BDE8F08F10B502469D
:1046800000210AE0424C34F91140944203D1404CDD
:1046900034F9113003E04C1CE1B20829F2DB00BF11
:1046A000D41A20B210BD10B586B0002414223949A6
:1046B00001A807F0FDFA6420FEF71BFE00F0F2F8F7
:1046C0006420FEF716FE7520FFF737FC702805D032
:1046D00031A007F0ABF9FF2006B010BD00240DE0BB
:1046E00001AA02EB4402517801AA12F81400FFF764
:1046F0000BFC0120FEF7FDFD601CC4B20A2CEFDBB1
:104700000020E9E70EB50121084600F0FFFC4FF05C
:10471000FF3001905920ADF800000020ADF80800EE
:10472000ADF802000121880702F054F869464FF005
:10473000804001F0E4FF0121880702F069F80EBD16
:1047400010B502E0C820FEF7D4FDFFF7ACFFFF284C
:10475000F8D0FFF7D7FF10BD4FF08040406A704798
:10476000E406002098824242F2000020F40000207B
:10477000F60000206E06002088060020F8000020C9
:10478000FA000020FC00002000804242F0050020DA
:10479000FE00002088D700086572726F72203141D8
:1047A0000D0A00001CB50121202000F068FC4FF428
:1047B0006070009002208DF8040000208DF8060043
:1047C00003208DF8050000208DF8070069464E484B
:1047D00000F0B4F94020009001208DF80400002082
:1047E0008DF8060003208DF8050000208DF80700E5
:1047F0006946454800F0A2F905220721424800F029
:1048000028FA05220921404800F023FA0522082150
:104810003D4800F01EFA1CBD00B585B00121080519
:1048200000F085FC0121080500F0D6FC00214FF4C2
:10483000801000F0D1FC0020ADF800004FF4827031
:10484000ADF802000020ADF80400ADF80600ADF8A8
:1048500008004FF40070ADF80A003020ADF80C00ED
:104860000020ADF80E000A20ADF810006946274878
:1048700002F036FD0121254802F02CFE05B000BDF6
:1048800010B50446214800884FF6C77108401F49FB
:104890000880084600882043088001211B4802F058
:1048A00019FE10BD10B5FFF77DFFFFF7B5FF3020F3
:1048B000FFF7E6FF10BD70B505460126002422E093
:1048C000012E0FD10221114802F082FE50B10024C6
:1048D00001E0601CC4B2C82CFBDB29460B4802F087
:1048E00075FE00267EB90121084802F071FE50B124
:1048F000002401E0601CC4B2C82CFBDB034802F0BA
:1049000062FEC0B270BDDBE70014024000500140FF
:104910000948804709480047FEE7FEE7FEE7FEE753
:10492000FEE7FEE7FEE7FEE7FEE7FEE7044805498F
:10493000054A064B7047000079070008AD010008E2
:10494000F8340120F83A0120F8360120F836012029
:1049500032490143324A1160704770B5002100238B
:104960000F22C4781CB32E4C246804F4E064C4F510
:10497000E064C4F30721C1F10404E3B20A414478BE
:104980009C40E1B28478144021430C07210E254C51
:1049900005786155047804F01F050124AC400578C2
:1049A0006D11AD0005F1E025C5F8004109E004787E
:1049B00004F01F050124AC401B4D0678761145F824
:1049C000264070BD194A0A400243154B1B1F1A604E
:1049D000704739B1124A121D12680243104B1B1D59
:1049E0001A6006E00E4A121D126882430C4B1B1D12
:1049F0001A607047042808D14FF0E021096941F09E
:104A000004014FF0E022116107E04FF0E021096955
:104A100021F004014FF0E022116170470000FA0517
:104A20000CED00E000E400E080E100E080FFFF1F0B
:104A300010B504469848844208D10121084600F088
:104A400087FB0021012000F083FB76E0934884423D
:104A500008D10121022000F07BFB0021022000F0A0
:104A600077FB6AE08E48844208D10121042000F0DF
:104A70006FFB0021042000F06BFB5EE0894884425C
:104A800008D10121082000F063FB0021082000F07C
:104A90005FFB52E08448844208D10121102000F0DD
:104AA00057FB0021102000F053FB46E07F48844272
:104AB00008D10121202000F04BFB0021202000F034
:104AC00047FB3AE07A48844208D10121402000F0B7
:104AD0003FFB0021402000F03BFB2EE07548844264
:104AE00008D10121802000F033FB0021802000F05C
:104AF0002FFB22E07048844208D10121801500F08C
:104B000027FB0021A01500F023FB16E06B48844230
:104B100008D10121401500F01BFB0021601500F0B9
:104B200017FB0AE06648844207D10121001500F016
:104B30000FFB0021201500F00BFB10BDF0B50A465D
:104B400000210023002400BF3DE0012505FA01F308
:104B5000156805EA03049C4234D105684F0003261A
:104B6000BE40B543056015794E00B5400668354333
:104B700005601579012D02D01579022D16D18568B1
:104B80004F000326BE40B543856055794E00B540C1
:104B9000866835438560456801268E40B54345608B
:104BA000456896798E40B6B235434560C5684F007A
:104BB0000326BE40B543C560D5794E00B540C668F2
:104BC0003543C560491C1029BFD3F0BD4FF6FF71B6
:104BD00001600021017141718171C171704708B597
:104BE0004FF480320092009A0A430092009AC26108
:104BF000C161009AC261C2690092C269009208BD97
:104C00000246002013690B400BB1012000E0002098
:104C100070470146086980B2704702460020536918
:104C20000B400BB1012000E00020704701464869AD
:104C300080B2704701837047418370470AB1018396
:104C400000E0418370474161704742694A404261D8
:104C50007047F0B5002300244D07ED0E02FA05F36E
:104C6000CE1000F1200555F826504E07F70E0F26FE
:104C7000BE40B543CF1000F1200646F82750CE10B5
:104C800000F1200555F8265045EA0304CE1000F146
:104C9000200545F82640F0BD000002400004024017
:104CA00000080240000C02400010024000140240C4
:104CB00000180240001C0240002002400024024074
:104CC00000280240F648006840F00100F4490860FE
:104CD0000020F34908310860F1480068F1490840B4
:104CE000EF490860F048091D0860F048EC4984313C
:104CF0000860ED481038091D0860E948006820F494
:104D00008020E74908600020E5490C310860E4494B
:104D10008C31086070470121E14A921C11701146E4
:104D20000870704710B501460022002300204A1188
:104D3000012A02D1DA4C236808E0022A03D1D84CB8
:104D40007034236802E0D64C7434236801F01F02EB
:104D5000012494401C400CB1012000E0002010BD53
:104D600038B5002000900024002500BF3120FFF757
:104D7000D9FF05460098401C00900098B0F5A04F60
:104D800001D0002DF2D03120FFF7CCFF08B1012473
:104D900000E00024204638BD01460020C04A1068CB
:104DA00020F0F80040EAC10010607047C049086078
:104DB00070470021BA4A703211701170012802D078
:104DC00004280AD104E00121B54A7032117005E0CF
:104DD0000521B34A7032117000E000BF00BF704778
:104DE000B4490860704770B5049C41EA82150126F9
:104DF000C6EB530645EA0645054345EA0465A84E59
:104E0000361D356070BDAA490866704710B583012C
:104E100043EA016343EA0273A14C8434236010BD6A
:104E2000A3498866704710B5830143EA016343EAEA
:104E300002739B4C8834236010BD9D4908677047FE
:104E40009B49C864704702460020954B0833186898
:104E500020F0EC6042EA01031843914B08331860DC
:104E60007047024600208E4B0833186820F07840C7
:104E700042EA010318438A4B083318607047014621
:104E80000020874A0832106820F0030008431060B1
:104E9000704783480830006800F00C0070470146F6
:104EA00000207F4A0832106820F0F00008431060AC
:104EB0007047014600207A4A0832106820F4E0501A
:104EC00008431060704701460020754A0832106898
:104ED00020F4604040EAC10010607047F0B5002146
:104EE000002200240225002602236D4F08373F6868
:104EF00007F00C0121B1042905D0082937D105E0BC
:104F00006D4F076036E06D4F076033E0644F3F1D23
:104F10003F68C7F38056624F3F1D3F6807F03F036D
:104F20006EB1664FB7FBF3F7DFF874C10CF1040CF8
:104F3000DCF800C0CCF3881C07FB0CF40CE05E4FDF
:104F4000B7FBF3F7DFF858C10CF1040CDCF800C034
:104F5000CCF3881C07FB0CF4514F3F1D3F68C7F38F
:104F600001477F1C7D00B4FBF5F7076002E0524F5C
:104F7000076000BF00BF4A4F08373F6807F0F001E5
:104F800009094F4F7A5C0768D7404760444F08379C
:104F90003F6807F4E051890A494F7A5C4768D74077
:104FA00087603F4F08373F6807F46041490B444F23
:104FB0007A5C4768D740C760F0BD002100F44072BA
:104FC000B2F5407F0AD1364A0832116821F4F8114F
:104FD0003C4A02401143324A08321160304A703272
:104FE0001268C0F30B031A432D4B70331A607047DD
:104FF00030494439086070472E494039086070478D
:1050000031490860704701460020254A8C321068FB
:1050100020F01F004A1E1043214A8C321060704756
:10502000014600201E4A8C32106820F4F8504A1EB7
:1050300040EA02201A4A8C32106070470146002074
:10504000174A8C32106820F44010084310607047F3
:1050500001460020124A8C32106820F440000843B8
:1050600010607047014600200D4A8C32106820F411
:10507000403008431060704714490860704739B1E8
:10508000074A303212680243054B30331A6006E09B
:10509000034A303212688243014B30331A60704742
:1050A00000380240FFFFF6EA1030002400300020F4
:1050B00000004742800E47420024F400001BB70066
:1050C0002B010020FFFCFF0F5C014742E01147422B
:1050D00029B1934A12680243914B1A6004E0904A46
:1050E000126882438E4B1A60704739B18C4A121D88
:1050F000126802438A4B1B1D1A6006E0884A121D83
:1051000012688243864B1B1D1A60704739B1844A6E
:105110000C3212680243824B0C331A6006E0804A5C
:105120000C32126882437E4B0C331A60704739B1DF
:105130007B4A103212680243794B10331A6006E042
:10514000774A103212688243754B10331A607047E9
:1051500039B1734A243A12680243714B243B1A60F6
:1051600006E06F4A243A126882436D4B243B1A6072
:10517000704739B16A4A203A12680243684B203BB3
:105180001A6006E0664A203A12688243644B203B6C
:105190001A60704739B1624A1C3A12680243604B88
:1051A0001C3B1A6006E05E4A1C3A126882435C4B64
:1051B0001C3B1A60704739B1594A143A12680243CD
:1051C000574B143B1A6006E0554A143A1268824362
:1051D000534B143B1A60704739B1514A103A126868
:1051E00002434F4B103B1A6006E04D4A103A1268DA
:1051F00082434B4B103B1A60704739B1484A1C320E
:1052000012680243464B1C331A6006E0444A1C32C3
:1052100012688243424B1C331A60704739B1404ACE
:105220002032126802433E4B20331A6006E03C4AAB
:105230002032126882433A4B20331A60704739B1EA
:10524000374A243212680243354B24331A6006E091
:10525000334A243212688243314B24331A60704738
:1052600039B12F4A2C32126802432D4B2C331A606D
:1052700006E02B4A2C3212688243294B2C331A60E9
:10528000704739B1264A303212680243244B30331A
:105290001A6006E0224A303212688243204B3033D3
:1052A0001A607047012808D11D493C31096841F056
:1052B00008011B4A3C32116007E019493C3109687A
:1052C00021F00801164A3C321160704739B1144A86
:1052D000273A12780243124B273B1A7006E0104A15
:1052E000273A127882430E4B273B1A7070470C48BE
:1052F0004030006840F080700949403108607047D4
:1053000001460020064A283A12680A400AB10120E4
:1053100000E00020704702492639087070470000FD
:105320003438024010B501218803FFF755FF0021F2
:105330004FF48040FFF750FF10BD1C4908607047D4
:105340001B490862704730B500228B071C0F0F23E2
:1053500003FA04F2154B08338C1053F824309343AE
:10536000124C08348D1044F8253023468C1053F825
:1053700024308C07240F00FA04F423430B4C083428
:105380008D1044F8253030BD0949DC310860704784
:10539000084908607047002004492031096801F479
:1053A000807109B1012000E0002070470038014001
:1053B000000027420004274210B50446FA48844200
:1053C00008D101211020FFF707FF00211020FFF76F
:1053D00003FF57E0F548844209D101214804FFF753
:1053E000EAFE00214FF40030FFF7E5FE4AE0F04806
:1053F000844209D101218804FFF7DDFE00214FF42A
:105400008020FFF7D8FE3DE0EA48844209D101211F
:10541000C804FFF7D0FE00214FF40020FFF7CBFEB9
:1054200030E0E548844209D101210805FFF7C3FEB9
:1054300000214FF48010FFF7BEFE23E0DF488442D6
:1054400008D101212020FFF7C7FE00212020FFF70F
:10545000C3FE17E0DA48844209D101218807FFF72B
:10546000AAFE00214FF08040FFF7A5FE0AE0D548D4
:10547000844207D101214005FFF79DFE0021600510
:10548000FFF799FE10BD2DE9FF4705460E460024A3
:10549000A14600BFA046B08900B100BF2C8A24F409
:1054A0004054F08804432C82AC8941F20C60844360
:1054B000B08831890843718908430443AC81AC8AC0
:1054C00024F44074B0890443AC826846FFF706FDBB
:1054D000B548854202D0B948854202D1DDF80C902A
:1054E00001E0DDF80890A88900F4004040B109EB24
:1054F000C90000EB091031684900B0FBF1F707E083
:1055000009EBC90000EB091031688900B0FBF1F725
:105510006420B7FBF0F004012009642101FB10783E
:10552000A88900F4004040B1322000EBC800B0FB75
:10553000F1F000F00700044308E0322000EB08100F
:105540006421B0FBF1F000F00F0004432C81BDE8B2
:10555000FF874FF41651016000218180C1800181D5
:105560000C21418100218181704710B50246002045
:10557000108A20F470600B884C8823438C88234366
:10558000CC8823431843108210BD00210180418044
:105590008180C180704721B1828942F400528281AA
:1055A00004E082894DF6FF731A4082817047028BB6
:1055B00002F47F420283028B0A430283704721B1C7
:1055C000828942F40042828103E08289C2F30E02A2
:1055D0008281704721B1828A42F40062828204E0B3
:1055E000828A4FF2FF731A4082827047C1F3080229
:1055F0008280704701468888C0F308007047028A9D
:105600004FF6F0731A400282028A0A430282704700
:1056100021B1828942F00202828104E082894FF640
:10562000FD731A408281704782894FF2FF731A40DE
:10563000828182890A4382817047028A4FF6DF7332
:105640001A400282028A0A430282704721B1028A0A
:1056500042F48042028204E0028A4BF6FF731A4051
:1056600002827047818941F001018181704721B137
:10567000828A42F00802828204E0828A4FF6F7733F
:105680001A4082827047028BD2B20283028B42EAB6
:1056900001220283704721B1828A42F02002828275
:1056A00004E0828A4FF6DF731A408282704721B18C
:1056B000828A42F01002828204E0828A4FF6EF73FF
:1056C0001A4082827047828A4FF6FB731A408282A8
:1056D000828A0A438282704721B1828A42F00202A2
:1056E000828204E0828A4FF6FD731A4082827047FC
:1056F0001AB1838A0B43838202E0838A8B438382BD
:105700007047F0B50346002400260025002040F62F
:105710006A17B94200D100BF1846C1F3421401F024
:105720001F06012707FA06F5012C01D10C3004E011
:10573000022C01D1103000E014301AB107682F4359
:10574000076002E00768AF430760F0BD0246002033
:10575000B1F5007F00D100BF13880B400BB10120D1
:1057600000E00020704701F40072B2F5007F00D124
:1057700000BFCA430280704770B502460024002370
:105780000025002040F66A16B14200D100BFC1F3E7
:10579000421501F01F03012606FA03F3012D13D170
:1057A0009689334017E0000000100140004400409B
:1057B00000480040004C00400050004000140140F0
:1057C00000780040007C0040022D02D1168A334050
:1057D00001E0968A33400C12012606FA04F416887A
:1057E000344013B10CB1012000E0002070BD10B5B1
:1057F0000022002340F66A14A14200D100BF0A1221
:1058000001249440A3B2DC43048010BD10B50446CB
:10581000FE48844209D101214806FFF7CCFC002153
:105820004FF00070FFF7C7FC08E001218806FFF782
:10583000C2FC00214FF08060FFF7BDFC10BD30B509
:10584000024600200023146824F002041460146847
:1058500044F00104146000E05B1C546804F001048F
:105860001CB94FF6FF74A342F6D1546804F001044A
:105870000CB900206CE08C79012C04D1146844F040
:105880008004146003E0146824F080041460CC7970
:10589000012C04D1146844F04004146003E014683F
:1058A00024F0400414600C7A012C04D1146844F0F4
:1058B0002004146003E0146824F0200414604C7A7F
:1058C000012C04D1146844F01004146003E014683F
:1058D00024F0100414608C7A012C04D1146844F074
:1058E0000804146003E0146824F008041460CC7AFF
:1058F000012C04D1146844F00404146003E014681B
:1059000024F0040414608C78A407CD7844EA05647C
:105910000D7944EA05444D7944EA05540D886D1E1D
:105920002C43D461146824F001041460002300E0C7
:105930005B1C546804F001041CB14FF6FF74A342D1
:10594000F6D1546804F001040CB1002000E00120FD
:1059500030BD10B50021837A012202FA03F1AC4A6E
:10596000126842F00102AA4B1A60A94A1C3212685E
:105970008A43A74B1C331A60027BCAB9A44A0C3273
:1059800012688A43A24B0C331A604288C38842EAE9
:1059900003439F4A4032847A42F834300288838835
:1059A00042EA03439A4A4032847A02EBC4025360CB
:1059B000027B012A19D1964A0C3212680A43944B91
:1059C0000C331A604288038842EA0343904A40320B
:1059D000847A42F83430C288838842EA03438C4A8E
:1059E0004032847A02EBC4025360C27A3AB9884AE0
:1059F000121D12688A43864B1B1D1A6006E0844AFA
:105A0000121D12680A43824B1B1D1A60028932B9AB
:105A10007F4A143212688A437D4B14331A6002891C
:105A2000012A06D17A4A143212680A43784B143399
:105A30001A60427B012A06D1754A1C3212680A4359
:105A4000734B1C331A60724A126822F00102704BC9
:105A50001A6010BD00218171C171017241728172A1
:105A6000C1728170C1700321017102214171012154
:105A7000018070476649096841F00101644A11607C
:105A80001146096843F60E729143614A116011464E
:105A9000096841EA002111601146096821F00101FD
:105AA0001160704721B1026842F48032026003E065
:105AB000026822F4803202607047E1B1026842F06D
:105AC000800202604FF4C272125842F480734FF4A5
:105AD000C27213504FF4CA72125842F480734FF4DA
